{
	"HelloWorld.sol": {
		"HelloWorld": {
			"abi": [
				{
					"inputs": [],
					"stateMutability": "nonpayable",
					"type": "constructor"
				},
				{
					"inputs": [],
					"name": "helloworld",
					"outputs": [
						{
							"internalType": "string",
							"name": "",
							"type": "string"
						}
					],
					"stateMutability": "view",
					"type": "function"
				},
				{
					"inputs": [],
					"name": "restore",
					"outputs": [
						{
							"internalType": "bool",
							"name": "",
							"type": "bool"
						}
					],
					"stateMutability": "nonpayable",
					"type": "function"
				},
				{
					"inputs": [
						{
							"internalType": "string",
							"name": "newText",
							"type": "string"
						}
					],
					"name": "setText",
					"outputs": [],
					"stateMutability": "nonpayable",
					"type": "function"
				},
				{
					"inputs": [],
					"name": "textHasChanged",
					"outputs": [
						{
							"internalType": "bool",
							"name": "returnValue_",
							"type": "bool"
						}
					],
					"stateMutability": "view",
					"type": "function"
				}
			],
			"devdoc": {
				"kind": "dev",
				"methods": {},
				"version": 1
			},
			"evm": {
				"assembly": "    /* \"HelloWorld.sol\":69:953  contract HelloWorld{... */\n  mstore(0x40, 0x80)\n    /* \"HelloWorld.sol\":123:175  constructor(){... */\n  callvalue\n  dup1\n  iszero\n  tag_1\n  jumpi\n  revert(0x00, 0x00)\ntag_1:\n  pop\n    /* \"HelloWorld.sol\":154:167  initialText() */\n  tag_4\n    /* \"HelloWorld.sol\":154:165  initialText */\n  shl(0x20, tag_5)\n    /* \"HelloWorld.sol\":154:167  initialText() */\n  0x20\n  shr\n  jump\t// in\ntag_4:\n    /* \"HelloWorld.sol\":147:151  text */\n  0x00\n    /* \"HelloWorld.sol\":147:167  text = initialText() */\n  swap1\n  dup2\n  tag_6\n  swap2\n  swap1\n  tag_7\n  jump\t// in\ntag_6:\n  pop\n    /* \"HelloWorld.sol\":69:953  contract HelloWorld{... */\n  jump(tag_8)\n    /* \"HelloWorld.sol\":366:465  function initialText() internal pure returns(string memory) {... */\ntag_5:\n    /* \"HelloWorld.sol\":411:424  string memory */\n  0x60\n    /* \"HelloWorld.sol\":437:457  return \"Hello world\" */\n  mload(0x40)\n  dup1\n  0x40\n  add\n  0x40\n  mstore\n  dup1\n  0x0b\n  dup2\n  mstore\n  0x20\n  add\n  0x48656c6c6f20776f726c64000000000000000000000000000000000000000000\n  dup2\n  mstore\n  pop\n  swap1\n  pop\n    /* \"HelloWorld.sol\":366:465  function initialText() internal pure returns(string memory) {... */\n  swap1\n  jump\t// out\n    /* \"#utility.yul\":7:106   */\ntag_10:\n    /* \"#utility.yul\":59:65   */\n  0x00\n    /* \"#utility.yul\":93:98   */\n  dup2\n    /* \"#utility.yul\":87:99   */\n  mload\n    /* \"#utility.yul\":77:99   */\n  swap1\n  pop\n    /* \"#utility.yul\":7:106   */\n  swap2\n  swap1\n  pop\n  jump\t// out\n    /* \"#utility.yul\":112:292   */\ntag_11:\n    /* \"#utility.yul\":160:237   */\n  0x4e487b7100000000000000000000000000000000000000000000000000000000\n    /* \"#utility.yul\":157:158   */\n  0x00\n    /* \"#utility.yul\":150:238   */\n  mstore\n    /* \"#utility.yul\":257:261   */\n  0x41\n    /* \"#utility.yul\":254:255   */\n  0x04\n    /* \"#utility.yul\":247:262   */\n  mstore\n    /* \"#utility.yul\":281:285   */\n  0x24\n    /* \"#utility.yul\":278:279   */\n  0x00\n    /* \"#utility.yul\":271:286   */\n  revert\n    /* \"#utility.yul\":298:478   */\ntag_12:\n    /* \"#utility.yul\":346:423   */\n  0x4e487b7100000000000000000000000000000000000000000000000000000000\n    /* \"#utility.yul\":343:344   */\n  0x00\n    /* \"#utility.yul\":336:424   */\n  mstore\n    /* \"#utility.yul\":443:447   */\n  0x22\n    /* \"#utility.yul\":440:441   */\n  0x04\n    /* \"#utility.yul\":433:448   */\n  mstore\n    /* \"#utility.yul\":467:471   */\n  0x24\n    /* \"#utility.yul\":464:465   */\n  0x00\n    /* \"#utility.yul\":457:472   */\n  revert\n    /* \"#utility.yul\":484:804   */\ntag_13:\n    /* \"#utility.yul\":528:534   */\n  0x00\n    /* \"#utility.yul\":565:566   */\n  0x02\n    /* \"#utility.yul\":559:563   */\n  dup3\n    /* \"#utility.yul\":555:567   */\n  div\n    /* \"#utility.yul\":545:567   */\n  swap1\n  pop\n    /* \"#utility.yul\":612:613   */\n  0x01\n    /* \"#utility.yul\":606:610   */\n  dup3\n    /* \"#utility.yul\":602:614   */\n  and\n    /* \"#utility.yul\":633:651   */\n  dup1\n    /* \"#utility.yul\":623:704   */\n  tag_35\n  jumpi\n    /* \"#utility.yul\":689:693   */\n  0x7f\n    /* \"#utility.yul\":681:687   */\n  dup3\n    /* \"#utility.yul\":677:694   */\n  and\n    /* \"#utility.yul\":667:694   */\n  swap2\n  pop\n    /* \"#utility.yul\":623:704   */\ntag_35:\n    /* \"#utility.yul\":751:753   */\n  0x20\n    /* \"#utility.yul\":743:749   */\n  dup3\n    /* \"#utility.yul\":740:754   */\n  lt\n    /* \"#utility.yul\":720:738   */\n  dup2\n    /* \"#utility.yul\":717:755   */\n  sub\n    /* \"#utility.yul\":714:798   */\n  tag_36\n  jumpi\n    /* \"#utility.yul\":770:788   */\n  tag_37\n  tag_12\n  jump\t// in\ntag_37:\n    /* \"#utility.yul\":714:798   */\ntag_36:\n    /* \"#utility.yul\":535:804   */\n  pop\n    /* \"#utility.yul\":484:804   */\n  swap2\n  swap1\n  pop\n  jump\t// out\n    /* \"#utility.yul\":810:951   */\ntag_14:\n    /* \"#utility.yul\":859:863   */\n  0x00\n    /* \"#utility.yul\":882:885   */\n  dup2\n    /* \"#utility.yul\":874:885   */\n  swap1\n  pop\n    /* \"#utility.yul\":905:908   */\n  dup2\n    /* \"#utility.yul\":902:903   */\n  0x00\n    /* \"#utility.yul\":895:909   */\n  mstore\n    /* \"#utility.yul\":939:943   */\n  0x20\n    /* \"#utility.yul\":936:937   */\n  0x00\n    /* \"#utility.yul\":926:944   */\n  keccak256\n    /* \"#utility.yul\":918:944   */\n  swap1\n  pop\n    /* \"#utility.yul\":810:951   */\n  swap2\n  swap1\n  pop\n  jump\t// out\n    /* \"#utility.yul\":957:1050   */\ntag_15:\n    /* \"#utility.yul\":994:1000   */\n  0x00\n    /* \"#utility.yul\":1041:1043   */\n  0x20\n    /* \"#utility.yul\":1036:1038   */\n  0x1f\n    /* \"#utility.yul\":1029:1034   */\n  dup4\n    /* \"#utility.yul\":1025:1039   */\n  add\n    /* \"#utility.yul\":1021:1044   */\n  div\n    /* \"#utility.yul\":1011:1044   */\n  swap1\n  pop\n    /* \"#utility.yul\":957:1050   */\n  swap2\n  swap1\n  pop\n  jump\t// out\n    /* \"#utility.yul\":1056:1163   */\ntag_16:\n    /* \"#utility.yul\":1100:1108   */\n  0x00\n    /* \"#utility.yul\":1150:1155   */\n  dup3\n    /* \"#utility.yul\":1144:1148   */\n  dup3\n    /* \"#utility.yul\":1140:1156   */\n  shl\n    /* \"#utility.yul\":1119:1156   */\n  swap1\n  pop\n    /* \"#utility.yul\":1056:1163   */\n  swap3\n  swap2\n  pop\n  pop\n  jump\t// out\n    /* \"#utility.yul\":1169:1562   */\ntag_17:\n    /* \"#utility.yul\":1238:1244   */\n  0x00\n    /* \"#utility.yul\":1288:1289   */\n  0x08\n    /* \"#utility.yul\":1276:1286   */\n  dup4\n    /* \"#utility.yul\":1272:1290   */\n  mul\n    /* \"#utility.yul\":1311:1408   */\n  tag_42\n    /* \"#utility.yul\":1341:1407   */\n  0xffffffffffffffffffffffffffffffffffffffffffffffffffffffffffffffff\n    /* \"#utility.yul\":1330:1339   */\n  dup3\n    /* \"#utility.yul\":1311:1408   */\n  tag_16\n  jump\t// in\ntag_42:\n    /* \"#utility.yul\":1429:1468   */\n  tag_43\n    /* \"#utility.yul\":1459:1467   */\n  dup7\n    /* \"#utility.yul\":1448:1457   */\n  dup4\n    /* \"#utility.yul\":1429:1468   */\n  tag_16\n  jump\t// in\ntag_43:\n    /* \"#utility.yul\":1417:1468   */\n  swap6\n  pop\n    /* \"#utility.yul\":1501:1505   */\n  dup1\n    /* \"#utility.yul\":1497:1506   */\n  not\n    /* \"#utility.yul\":1490:1495   */\n  dup5\n    /* \"#utility.yul\":1486:1507   */\n  and\n    /* \"#utility.yul\":1477:1507   */\n  swap4\n  pop\n    /* \"#utility.yul\":1550:1554   */\n  dup1\n    /* \"#utility.yul\":1540:1548   */\n  dup7\n    /* \"#utility.yul\":1536:1555   */\n  and\n    /* \"#utility.yul\":1529:1534   */\n  dup5\n    /* \"#utility.yul\":1526:1556   */\n  or\n    /* \"#utility.yul\":1516:1556   */\n  swap3\n  pop\n    /* \"#utility.yul\":1245:1562   */\n  pop\n  pop\n    /* \"#utility.yul\":1169:1562   */\n  swap4\n  swap3\n  pop\n  pop\n  pop\n  jump\t// out\n    /* \"#utility.yul\":1568:1645   */\ntag_18:\n    /* \"#utility.yul\":1605:1612   */\n  0x00\n    /* \"#utility.yul\":1634:1639   */\n  dup2\n    /* \"#utility.yul\":1623:1639   */\n  swap1\n  pop\n    /* \"#utility.yul\":1568:1645   */\n  swap2\n  swap1\n  pop\n  jump\t// out\n    /* \"#utility.yul\":1651:1711   */\ntag_19:\n    /* \"#utility.yul\":1679:1682   */\n  0x00\n    /* \"#utility.yul\":1700:1705   */\n  dup2\n    /* \"#utility.yul\":1693:1705   */\n  swap1\n  pop\n    /* \"#utility.yul\":1651:1711   */\n  swap2\n  swap1\n  pop\n  jump\t// out\n    /* \"#utility.yul\":1717:1859   */\ntag_20:\n    /* \"#utility.yul\":1767:1776   */\n  0x00\n    /* \"#utility.yul\":1800:1853   */\n  tag_47\n    /* \"#utility.yul\":1818:1852   */\n  tag_48\n    /* \"#utility.yul\":1827:1851   */\n  tag_49\n    /* \"#utility.yul\":1845:1850   */\n  dup5\n    /* \"#utility.yul\":1827:1851   */\n  tag_18\n  jump\t// in\ntag_49:\n    /* \"#utility.yul\":1818:1852   */\n  tag_19\n  jump\t// in\ntag_48:\n    /* \"#utility.yul\":1800:1853   */\n  tag_18\n  jump\t// in\ntag_47:\n    /* \"#utility.yul\":1787:1853   */\n  swap1\n  pop\n    /* \"#utility.yul\":1717:1859   */\n  swap2\n  swap1\n  pop\n  jump\t// out\n    /* \"#utility.yul\":1865:1940   */\ntag_21:\n    /* \"#utility.yul\":1908:1911   */\n  0x00\n    /* \"#utility.yul\":1929:1934   */\n  dup2\n    /* \"#utility.yul\":1922:1934   */\n  swap1\n  pop\n    /* \"#utility.yul\":1865:1940   */\n  swap2\n  swap1\n  pop\n  jump\t// out\n    /* \"#utility.yul\":1946:2215   */\ntag_22:\n    /* \"#utility.yul\":2056:2095   */\n  tag_52\n    /* \"#utility.yul\":2087:2094   */\n  dup4\n    /* \"#utility.yul\":2056:2095   */\n  tag_20\n  jump\t// in\ntag_52:\n    /* \"#utility.yul\":2117:2208   */\n  tag_53\n    /* \"#utility.yul\":2166:2207   */\n  tag_54\n    /* \"#utility.yul\":2190:2206   */\n  dup3\n    /* \"#utility.yul\":2166:2207   */\n  tag_21\n  jump\t// in\ntag_54:\n    /* \"#utility.yul\":2158:2164   */\n  dup5\n    /* \"#utility.yul\":2151:2155   */\n  dup5\n    /* \"#utility.yul\":2145:2156   */\n  sload\n    /* \"#utility.yul\":2117:2208   */\n  tag_17\n  jump\t// in\ntag_53:\n    /* \"#utility.yul\":2111:2115   */\n  dup3\n    /* \"#utility.yul\":2104:2209   */\n  sstore\n    /* \"#utility.yul\":2022:2215   */\n  pop\n    /* \"#utility.yul\":1946:2215   */\n  pop\n  pop\n  pop\n  jump\t// out\n    /* \"#utility.yul\":2221:2294   */\ntag_23:\n    /* \"#utility.yul\":2266:2269   */\n  0x00\n    /* \"#utility.yul\":2287:2288   */\n  0x00\n    /* \"#utility.yul\":2280:2288   */\n  swap1\n  pop\n    /* \"#utility.yul\":2221:2294   */\n  swap1\n  jump\t// out\n    /* \"#utility.yul\":2300:2489   */\ntag_24:\n    /* \"#utility.yul\":2377:2409   */\n  tag_57\n  tag_23\n  jump\t// in\ntag_57:\n    /* \"#utility.yul\":2418:2483   */\n  tag_58\n    /* \"#utility.yul\":2476:2482   */\n  dup2\n    /* \"#utility.yul\":2468:2474   */\n  dup5\n    /* \"#utility.yul\":2462:2466   */\n  dup5\n    /* \"#utility.yul\":2418:2483   */\n  tag_22\n  jump\t// in\ntag_58:\n    /* \"#utility.yul\":2353:2489   */\n  pop\n    /* \"#utility.yul\":2300:2489   */\n  pop\n  pop\n  jump\t// out\n    /* \"#utility.yul\":2495:2681   */\ntag_25:\n    /* \"#utility.yul\":2555:2675   */\ntag_60:\n    /* \"#utility.yul\":2572:2575   */\n  dup2\n    /* \"#utility.yul\":2565:2570   */\n  dup2\n    /* \"#utility.yul\":2562:2576   */\n  lt\n    /* \"#utility.yul\":2555:2675   */\n  iszero\n  tag_62\n  jumpi\n    /* \"#utility.yul\":2626:2665   */\n  tag_63\n    /* \"#utility.yul\":2663:2664   */\n  0x00\n    /* \"#utility.yul\":2656:2661   */\n  dup3\n    /* \"#utility.yul\":2626:2665   */\n  tag_24\n  jump\t// in\ntag_63:\n    /* \"#utility.yul\":2599:2600   */\n  0x01\n    /* \"#utility.yul\":2592:2597   */\n  dup2\n    /* \"#utility.yul\":2588:2601   */\n  add\n    /* \"#utility.yul\":2579:2601   */\n  swap1\n  pop\n    /* \"#utility.yul\":2555:2675   */\n  jump(tag_60)\ntag_62:\n    /* \"#utility.yul\":2495:2681   */\n  pop\n  pop\n  jump\t// out\n    /* \"#utility.yul\":2687:3230   */\ntag_26:\n    /* \"#utility.yul\":2788:2790   */\n  0x1f\n    /* \"#utility.yul\":2783:2786   */\n  dup3\n    /* \"#utility.yul\":2780:2791   */\n  gt\n    /* \"#utility.yul\":2777:3223   */\n  iszero\n  tag_65\n  jumpi\n    /* \"#utility.yul\":2822:2860   */\n  tag_66\n    /* \"#utility.yul\":2854:2859   */\n  dup2\n    /* \"#utility.yul\":2822:2860   */\n  tag_14\n  jump\t// in\ntag_66:\n    /* \"#utility.yul\":2906:2935   */\n  tag_67\n    /* \"#utility.yul\":2924:2934   */\n  dup5\n    /* \"#utility.yul\":2906:2935   */\n  tag_15\n  jump\t// in\ntag_67:\n    /* \"#utility.yul\":2896:2904   */\n  dup2\n    /* \"#utility.yul\":2892:2936   */\n  add\n    /* \"#utility.yul\":3089:3091   */\n  0x20\n    /* \"#utility.yul\":3077:3087   */\n  dup6\n    /* \"#utility.yul\":3074:3092   */\n  lt\n    /* \"#utility.yul\":3071:3120   */\n  iszero\n  tag_68\n  jumpi\n    /* \"#utility.yul\":3110:3118   */\n  dup2\n    /* \"#utility.yul\":3095:3118   */\n  swap1\n  pop\n    /* \"#utility.yul\":3071:3120   */\ntag_68:\n    /* \"#utility.yul\":3133:3213   */\n  tag_69\n    /* \"#utility.yul\":3189:3211   */\n  tag_70\n    /* \"#utility.yul\":3207:3210   */\n  dup6\n    /* \"#utility.yul\":3189:3211   */\n  tag_15\n  jump\t// in\ntag_70:\n    /* \"#utility.yul\":3179:3187   */\n  dup4\n    /* \"#utility.yul\":3175:3212   */\n  add\n    /* \"#utility.yul\":3162:3173   */\n  dup3\n    /* \"#utility.yul\":3133:3213   */\n  tag_25\n  jump\t// in\ntag_69:\n    /* \"#utility.yul\":2792:3223   */\n  pop\n  pop\n    /* \"#utility.yul\":2777:3223   */\ntag_65:\n    /* \"#utility.yul\":2687:3230   */\n  pop\n  pop\n  pop\n  jump\t// out\n    /* \"#utility.yul\":3236:3353   */\ntag_27:\n    /* \"#utility.yul\":3290:3298   */\n  0x00\n    /* \"#utility.yul\":3340:3345   */\n  dup3\n    /* \"#utility.yul\":3334:3338   */\n  dup3\n    /* \"#utility.yul\":3330:3346   */\n  shr\n    /* \"#utility.yul\":3309:3346   */\n  swap1\n  pop\n    /* \"#utility.yul\":3236:3353   */\n  swap3\n  swap2\n  pop\n  pop\n  jump\t// out\n    /* \"#utility.yul\":3359:3528   */\ntag_28:\n    /* \"#utility.yul\":3403:3409   */\n  0x00\n    /* \"#utility.yul\":3436:3487   */\n  tag_73\n    /* \"#utility.yul\":3484:3485   */\n  0x00\n    /* \"#utility.yul\":3480:3486   */\n  not\n    /* \"#utility.yul\":3472:3477   */\n  dup5\n    /* \"#utility.yul\":3469:3470   */\n  0x08\n    /* \"#utility.yul\":3465:3478   */\n  mul\n    /* \"#utility.yul\":3436:3487   */\n  tag_27\n  jump\t// in\ntag_73:\n    /* \"#utility.yul\":3432:3488   */\n  not\n    /* \"#utility.yul\":3517:3521   */\n  dup1\n    /* \"#utility.yul\":3511:3515   */\n  dup4\n    /* \"#utility.yul\":3507:3522   */\n  and\n    /* \"#utility.yul\":3497:3522   */\n  swap2\n  pop\n    /* \"#utility.yul\":3410:3528   */\n  pop\n    /* \"#utility.yul\":3359:3528   */\n  swap3\n  swap2\n  pop\n  pop\n  jump\t// out\n    /* \"#utility.yul\":3533:3828   */\ntag_29:\n    /* \"#utility.yul\":3609:3613   */\n  0x00\n    /* \"#utility.yul\":3755:3784   */\n  tag_75\n    /* \"#utility.yul\":3780:3783   */\n  dup4\n    /* \"#utility.yul\":3774:3778   */\n  dup4\n    /* \"#utility.yul\":3755:3784   */\n  tag_28\n  jump\t// in\ntag_75:\n    /* \"#utility.yul\":3747:3784   */\n  swap2\n  pop\n    /* \"#utility.yul\":3817:3820   */\n  dup3\n    /* \"#utility.yul\":3814:3815   */\n  0x02\n    /* \"#utility.yul\":3810:3821   */\n  mul\n    /* \"#utility.yul\":3804:3808   */\n  dup3\n    /* \"#utility.yul\":3801:3822   */\n  or\n    /* \"#utility.yul\":3793:3822   */\n  swap1\n  pop\n    /* \"#utility.yul\":3533:3828   */\n  swap3\n  swap2\n  pop\n  pop\n  jump\t// out\n    /* \"#utility.yul\":3833:5228   */\ntag_7:\n    /* \"#utility.yul\":3950:3987   */\n  tag_77\n    /* \"#utility.yul\":3983:3986   */\n  dup3\n    /* \"#utility.yul\":3950:3987   */\n  tag_10\n  jump\t// in\ntag_77:\n    /* \"#utility.yul\":4052:4070   */\n  0xffffffffffffffff\n    /* \"#utility.yul\":4044:4050   */\n  dup2\n    /* \"#utility.yul\":4041:4071   */\n  gt\n    /* \"#utility.yul\":4038:4094   */\n  iszero\n  tag_78\n  jumpi\n    /* \"#utility.yul\":4074:4092   */\n  tag_79\n  tag_11\n  jump\t// in\ntag_79:\n    /* \"#utility.yul\":4038:4094   */\ntag_78:\n    /* \"#utility.yul\":4118:4156   */\n  tag_80\n    /* \"#utility.yul\":4150:4154   */\n  dup3\n    /* \"#utility.yul\":4144:4155   */\n  sload\n    /* \"#utility.yul\":4118:4156   */\n  tag_13\n  jump\t// in\ntag_80:\n    /* \"#utility.yul\":4203:4270   */\n  tag_81\n    /* \"#utility.yul\":4263:4269   */\n  dup3\n    /* \"#utility.yul\":4255:4261   */\n  dup3\n    /* \"#utility.yul\":4249:4253   */\n  dup6\n    /* \"#utility.yul\":4203:4270   */\n  tag_26\n  jump\t// in\ntag_81:\n    /* \"#utility.yul\":4297:4298   */\n  0x00\n    /* \"#utility.yul\":4321:4325   */\n  0x20\n    /* \"#utility.yul\":4308:4325   */\n  swap1\n  pop\n    /* \"#utility.yul\":4353:4355   */\n  0x1f\n    /* \"#utility.yul\":4345:4351   */\n  dup4\n    /* \"#utility.yul\":4342:4356   */\n  gt\n    /* \"#utility.yul\":4370:4371   */\n  0x01\n    /* \"#utility.yul\":4365:4983   */\n  dup2\n  eq\n  tag_83\n  jumpi\n    /* \"#utility.yul\":5027:5028   */\n  0x00\n    /* \"#utility.yul\":5044:5050   */\n  dup5\n    /* \"#utility.yul\":5041:5118   */\n  iszero\n  tag_84\n  jumpi\n    /* \"#utility.yul\":5093:5102   */\n  dup3\n    /* \"#utility.yul\":5088:5091   */\n  dup8\n    /* \"#utility.yul\":5084:5103   */\n  add\n    /* \"#utility.yul\":5078:5104   */\n  mload\n    /* \"#utility.yul\":5069:5104   */\n  swap1\n  pop\n    /* \"#utility.yul\":5041:5118   */\ntag_84:\n    /* \"#utility.yul\":5144:5211   */\n  tag_85\n    /* \"#utility.yul\":5204:5210   */\n  dup6\n    /* \"#utility.yul\":5197:5202   */\n  dup3\n    /* \"#utility.yul\":5144:5211   */\n  tag_29\n  jump\t// in\ntag_85:\n    /* \"#utility.yul\":5138:5142   */\n  dup7\n    /* \"#utility.yul\":5131:5212   */\n  sstore\n    /* \"#utility.yul\":5000:5222   */\n  pop\n    /* \"#utility.yul\":4335:5222   */\n  jump(tag_82)\n    /* \"#utility.yul\":4365:4983   */\ntag_83:\n    /* \"#utility.yul\":4417:4421   */\n  0x1f\n    /* \"#utility.yul\":4413:4422   */\n  not\n    /* \"#utility.yul\":4405:4411   */\n  dup5\n    /* \"#utility.yul\":4401:4423   */\n  and\n    /* \"#utility.yul\":4451:4488   */\n  tag_86\n    /* \"#utility.yul\":4483:4487   */\n  dup7\n    /* \"#utility.yul\":4451:4488   */\n  tag_14\n  jump\t// in\ntag_86:\n    /* \"#utility.yul\":4510:4511   */\n  0x00\n    /* \"#utility.yul\":4524:4732   */\ntag_87:\n    /* \"#utility.yul\":4538:4545   */\n  dup3\n    /* \"#utility.yul\":4535:4536   */\n  dup2\n    /* \"#utility.yul\":4532:4546   */\n  lt\n    /* \"#utility.yul\":4524:4732   */\n  iszero\n  tag_89\n  jumpi\n    /* \"#utility.yul\":4617:4626   */\n  dup5\n    /* \"#utility.yul\":4612:4615   */\n  dup10\n    /* \"#utility.yul\":4608:4627   */\n  add\n    /* \"#utility.yul\":4602:4628   */\n  mload\n    /* \"#utility.yul\":4594:4600   */\n  dup3\n    /* \"#utility.yul\":4587:4629   */\n  sstore\n    /* \"#utility.yul\":4668:4669   */\n  0x01\n    /* \"#utility.yul\":4660:4666   */\n  dup3\n    /* \"#utility.yul\":4656:4670   */\n  add\n    /* \"#utility.yul\":4646:4670   */\n  swap2\n  pop\n    /* \"#utility.yul\":4715:4717   */\n  0x20\n    /* \"#utility.yul\":4704:4713   */\n  dup6\n    /* \"#utility.yul\":4700:4718   */\n  add\n    /* \"#utility.yul\":4687:4718   */\n  swap5\n  pop\n    /* \"#utility.yul\":4561:4565   */\n  0x20\n    /* \"#utility.yul\":4558:4559   */\n  dup2\n    /* \"#utility.yul\":4554:4566   */\n  add\n    /* \"#utility.yul\":4549:4566   */\n  swap1\n  pop\n    /* \"#utility.yul\":4524:4732   */\n  jump(tag_87)\ntag_89:\n    /* \"#utility.yul\":4760:4766   */\n  dup7\n    /* \"#utility.yul\":4751:4758   */\n  dup4\n    /* \"#utility.yul\":4748:4767   */\n  lt\n    /* \"#utility.yul\":4745:4924   */\n  iszero\n  tag_90\n  jumpi\n    /* \"#utility.yul\":4818:4827   */\n  dup5\n    /* \"#utility.yul\":4813:4816   */\n  dup10\n    /* \"#utility.yul\":4809:4828   */\n  add\n    /* \"#utility.yul\":4803:4829   */\n  mload\n    /* \"#utility.yul\":4861:4909   */\n  tag_91\n    /* \"#utility.yul\":4903:4907   */\n  0x1f\n    /* \"#utility.yul\":4895:4901   */\n  dup10\n    /* \"#utility.yul\":4891:4908   */\n  and\n    /* \"#utility.yul\":4880:4889   */\n  dup3\n    /* \"#utility.yul\":4861:4909   */\n  tag_28\n  jump\t// in\ntag_91:\n    /* \"#utility.yul\":4853:4859   */\n  dup4\n    /* \"#utility.yul\":4846:4910   */\n  sstore\n    /* \"#utility.yul\":4768:4924   */\n  pop\n    /* \"#utility.yul\":4745:4924   */\ntag_90:\n    /* \"#utility.yul\":4970:4971   */\n  0x01\n    /* \"#utility.yul\":4966:4967   */\n  0x02\n    /* \"#utility.yul\":4958:4964   */\n  dup9\n    /* \"#utility.yul\":4954:4968   */\n  mul\n    /* \"#utility.yul\":4950:4972   */\n  add\n    /* \"#utility.yul\":4944:4948   */\n  dup9\n    /* \"#utility.yul\":4937:4973   */\n  sstore\n    /* \"#utility.yul\":4372:4983   */\n  pop\n  pop\n  pop\n    /* \"#utility.yul\":4335:5222   */\ntag_82:\n  pop\n    /* \"#utility.yul\":3925:5228   */\n  pop\n  pop\n  pop\n    /* \"#utility.yul\":3833:5228   */\n  pop\n  pop\n  jump\t// out\n    /* \"HelloWorld.sol\":69:953  contract HelloWorld{... */\ntag_8:\n  dataSize(sub_0)\n  dup1\n  dataOffset(sub_0)\n  0x00\n  codecopy\n  0x00\n  return\nstop\n\nsub_0: assembly {\n        /* \"HelloWorld.sol\":69:953  contract HelloWorld{... */\n      mstore(0x40, 0x80)\n      callvalue\n      dup1\n      iszero\n      tag_1\n      jumpi\n      revert(0x00, 0x00)\n    tag_1:\n      pop\n      jumpi(tag_2, lt(calldatasize, 0x04))\n      shr(0xe0, calldataload(0x00))\n      dup1\n      0x2f2f4859\n      eq\n      tag_3\n      jumpi\n      dup1\n      0x2fda332e\n      eq\n      tag_4\n      jumpi\n      dup1\n      0x5d3a1f9d\n      eq\n      tag_5\n      jumpi\n      dup1\n      0x8f1f9d90\n      eq\n      tag_6\n      jumpi\n    tag_2:\n      revert(0x00, 0x00)\n        /* \"HelloWorld.sol\":183:270  function helloworld() public view returns (string memory){... */\n    tag_3:\n      tag_7\n      tag_8\n      jump\t// in\n    tag_7:\n      mload(0x40)\n      tag_9\n      swap2\n      swap1\n      tag_10\n      jump\t// in\n    tag_9:\n      mload(0x40)\n      dup1\n      swap2\n      sub\n      swap1\n      return\n        /* \"HelloWorld.sol\":816:950  function restore() public returns (bool){... */\n    tag_4:\n      tag_11\n      tag_12\n      jump\t// in\n    tag_11:\n      mload(0x40)\n      tag_13\n      swap2\n      swap1\n      tag_14\n      jump\t// in\n    tag_13:\n      mload(0x40)\n      dup1\n      swap2\n      sub\n      swap1\n      return\n        /* \"HelloWorld.sol\":278:358  function setText(string memory newText) public {... */\n    tag_5:\n      tag_15\n      0x04\n      dup1\n      calldatasize\n      sub\n      dup2\n      add\n      swap1\n      tag_16\n      swap2\n      swap1\n      tag_17\n      jump\t// in\n    tag_16:\n      tag_18\n      jump\t// in\n    tag_15:\n      stop\n        /* \"HelloWorld.sol\":617:732  function textHasChanged() public view returns (bool returnValue_) {... */\n    tag_6:\n      tag_19\n      tag_20\n      jump\t// in\n    tag_19:\n      mload(0x40)\n      tag_21\n      swap2\n      swap1\n      tag_14\n      jump\t// in\n    tag_21:\n      mload(0x40)\n      dup1\n      swap2\n      sub\n      swap1\n      return\n        /* \"HelloWorld.sol\":183:270  function helloworld() public view returns (string memory){... */\n    tag_8:\n        /* \"HelloWorld.sol\":226:239  string memory */\n      0x60\n        /* \"HelloWorld.sol\":258:262  text */\n      0x00\n        /* \"HelloWorld.sol\":251:262  return text */\n      dup1\n      sload\n      tag_23\n      swap1\n      tag_24\n      jump\t// in\n    tag_23:\n      dup1\n      0x1f\n      add\n      0x20\n      dup1\n      swap2\n      div\n      mul\n      0x20\n      add\n      mload(0x40)\n      swap1\n      dup2\n      add\n      0x40\n      mstore\n      dup1\n      swap3\n      swap2\n      swap1\n      dup2\n      dup2\n      mstore\n      0x20\n      add\n      dup3\n      dup1\n      sload\n      tag_25\n      swap1\n      tag_24\n      jump\t// in\n    tag_25:\n      dup1\n      iszero\n      tag_26\n      jumpi\n      dup1\n      0x1f\n      lt\n      tag_27\n      jumpi\n      0x0100\n      dup1\n      dup4\n      sload\n      div\n      mul\n      dup4\n      mstore\n      swap2\n      0x20\n      add\n      swap2\n      jump(tag_26)\n    tag_27:\n      dup3\n      add\n      swap2\n      swap1\n      0x00\n      mstore\n      keccak256(0x00, 0x20)\n      swap1\n    tag_28:\n      dup2\n      sload\n      dup2\n      mstore\n      swap1\n      0x01\n      add\n      swap1\n      0x20\n      add\n      dup1\n      dup4\n      gt\n      tag_28\n      jumpi\n      dup3\n      swap1\n      sub\n      0x1f\n      and\n      dup3\n      add\n      swap2\n    tag_26:\n      pop\n      pop\n      pop\n      pop\n      pop\n      swap1\n      pop\n        /* \"HelloWorld.sol\":183:270  function helloworld() public view returns (string memory){... */\n      swap1\n      jump\t// out\n        /* \"HelloWorld.sol\":816:950  function restore() public returns (bool){... */\n    tag_12:\n        /* \"HelloWorld.sol\":851:855  bool */\n      0x00\n        /* \"HelloWorld.sol\":871:885  _isUnchanged() */\n      tag_30\n        /* \"HelloWorld.sol\":871:883  _isUnchanged */\n      tag_31\n        /* \"HelloWorld.sol\":871:885  _isUnchanged() */\n      jump\t// in\n    tag_30:\n        /* \"HelloWorld.sol\":867:899  if (_isUnchanged()) return false */\n      iszero\n      tag_32\n      jumpi\n        /* \"HelloWorld.sol\":894:899  false */\n      0x00\n        /* \"HelloWorld.sol\":887:899  return false */\n      swap1\n      pop\n      jump(tag_29)\n        /* \"HelloWorld.sol\":867:899  if (_isUnchanged()) return false */\n    tag_32:\n        /* \"HelloWorld.sol\":910:920  _restore() */\n      tag_33\n        /* \"HelloWorld.sol\":910:918  _restore */\n      tag_34\n        /* \"HelloWorld.sol\":910:920  _restore() */\n      jump\t// in\n    tag_33:\n        /* \"HelloWorld.sol\":938:942  true */\n      0x01\n        /* \"HelloWorld.sol\":931:942  return true */\n      swap1\n      pop\n        /* \"HelloWorld.sol\":816:950  function restore() public returns (bool){... */\n    tag_29:\n      swap1\n      jump\t// out\n        /* \"HelloWorld.sol\":278:358  function setText(string memory newText) public {... */\n    tag_18:\n        /* \"HelloWorld.sol\":343:350  newText */\n      dup1\n        /* \"HelloWorld.sol\":336:340  text */\n      0x00\n        /* \"HelloWorld.sol\":336:350  text = newText */\n      swap1\n      dup2\n      tag_36\n      swap2\n      swap1\n      tag_37\n      jump\t// in\n    tag_36:\n      pop\n        /* \"HelloWorld.sol\":278:358  function setText(string memory newText) public {... */\n      pop\n      jump\t// out\n        /* \"HelloWorld.sol\":617:732  function textHasChanged() public view returns (bool returnValue_) {... */\n    tag_20:\n        /* \"HelloWorld.sol\":664:681  bool returnValue_ */\n      0x00\n        /* \"HelloWorld.sol\":710:724  _isUnchanged() */\n      tag_39\n        /* \"HelloWorld.sol\":710:722  _isUnchanged */\n      tag_31\n        /* \"HelloWorld.sol\":710:724  _isUnchanged() */\n      jump\t// in\n    tag_39:\n        /* \"HelloWorld.sol\":709:724  !_isUnchanged() */\n      iszero\n        /* \"HelloWorld.sol\":694:724  returnValue_ = !_isUnchanged() */\n      swap1\n      pop\n        /* \"HelloWorld.sol\":617:732  function textHasChanged() public view returns (bool returnValue_) {... */\n      swap1\n      jump\t// out\n        /* \"HelloWorld.sol\":473:609  function _isUnchanged() internal view returns (bool) {... */\n    tag_31:\n        /* \"HelloWorld.sol\":520:524  bool */\n      0x00\n        /* \"HelloWorld.sol\":586:599  initialText() */\n      tag_41\n        /* \"HelloWorld.sol\":586:597  initialText */\n      tag_42\n        /* \"HelloWorld.sol\":586:599  initialText() */\n      jump\t// in\n    tag_41:\n        /* \"HelloWorld.sol\":570:601  keccak256(bytes(initialText())) */\n      dup1\n      mload\n      swap1\n      0x20\n      add\n      keccak256\n        /* \"HelloWorld.sol\":560:564  text */\n      0x00\n        /* \"HelloWorld.sol\":544:566  keccak256(bytes(text)) */\n      mload(0x40)\n      tag_43\n      swap2\n      swap1\n      tag_44\n      jump\t// in\n    tag_43:\n      mload(0x40)\n      dup1\n      swap2\n      sub\n      swap1\n      keccak256\n        /* \"HelloWorld.sol\":544:601  keccak256(bytes(text)) == keccak256(bytes(initialText())) */\n      eq\n        /* \"HelloWorld.sol\":537:601  return keccak256(bytes(text)) == keccak256(bytes(initialText())) */\n      swap1\n      pop\n        /* \"HelloWorld.sol\":473:609  function _isUnchanged() internal view returns (bool) {... */\n      swap1\n      jump\t// out\n        /* \"HelloWorld.sol\":740:808  function _restore() internal {... */\n    tag_34:\n        /* \"HelloWorld.sol\":787:800  initialText() */\n      tag_46\n        /* \"HelloWorld.sol\":787:798  initialText */\n      tag_42\n        /* \"HelloWorld.sol\":787:800  initialText() */\n      jump\t// in\n    tag_46:\n        /* \"HelloWorld.sol\":780:784  text */\n      0x00\n        /* \"HelloWorld.sol\":780:800  text = initialText() */\n      swap1\n      dup2\n      tag_47\n      swap2\n      swap1\n      tag_37\n      jump\t// in\n    tag_47:\n      pop\n        /* \"HelloWorld.sol\":740:808  function _restore() internal {... */\n      jump\t// out\n        /* \"HelloWorld.sol\":366:465  function initialText() internal pure returns(string memory) {... */\n    tag_42:\n        /* \"HelloWorld.sol\":411:424  string memory */\n      0x60\n        /* \"HelloWorld.sol\":437:457  return \"Hello world\" */\n      mload(0x40)\n      dup1\n      0x40\n      add\n      0x40\n      mstore\n      dup1\n      0x0b\n      dup2\n      mstore\n      0x20\n      add\n      0x48656c6c6f20776f726c64000000000000000000000000000000000000000000\n      dup2\n      mstore\n      pop\n      swap1\n      pop\n        /* \"HelloWorld.sol\":366:465  function initialText() internal pure returns(string memory) {... */\n      swap1\n      jump\t// out\n        /* \"#utility.yul\":7:106   */\n    tag_49:\n        /* \"#utility.yul\":59:65   */\n      0x00\n        /* \"#utility.yul\":93:98   */\n      dup2\n        /* \"#utility.yul\":87:99   */\n      mload\n        /* \"#utility.yul\":77:99   */\n      swap1\n      pop\n        /* \"#utility.yul\":7:106   */\n      swap2\n      swap1\n      pop\n      jump\t// out\n        /* \"#utility.yul\":112:281   */\n    tag_50:\n        /* \"#utility.yul\":196:207   */\n      0x00\n        /* \"#utility.yul\":230:236   */\n      dup3\n        /* \"#utility.yul\":225:228   */\n      dup3\n        /* \"#utility.yul\":218:237   */\n      mstore\n        /* \"#utility.yul\":270:274   */\n      0x20\n        /* \"#utility.yul\":265:268   */\n      dup3\n        /* \"#utility.yul\":261:275   */\n      add\n        /* \"#utility.yul\":246:275   */\n      swap1\n      pop\n        /* \"#utility.yul\":112:281   */\n      swap3\n      swap2\n      pop\n      pop\n      jump\t// out\n        /* \"#utility.yul\":287:426   */\n    tag_51:\n        /* \"#utility.yul\":376:382   */\n      dup3\n        /* \"#utility.yul\":371:374   */\n      dup2\n        /* \"#utility.yul\":366:369   */\n      dup4\n        /* \"#utility.yul\":360:383   */\n      mcopy\n        /* \"#utility.yul\":417:418   */\n      0x00\n        /* \"#utility.yul\":408:414   */\n      dup4\n        /* \"#utility.yul\":403:406   */\n      dup4\n        /* \"#utility.yul\":399:415   */\n      add\n        /* \"#utility.yul\":392:419   */\n      mstore\n        /* \"#utility.yul\":287:426   */\n      pop\n      pop\n      pop\n      jump\t// out\n        /* \"#utility.yul\":432:534   */\n    tag_52:\n        /* \"#utility.yul\":473:479   */\n      0x00\n        /* \"#utility.yul\":524:526   */\n      0x1f\n        /* \"#utility.yul\":520:527   */\n      not\n        /* \"#utility.yul\":515:517   */\n      0x1f\n        /* \"#utility.yul\":508:513   */\n      dup4\n        /* \"#utility.yul\":504:518   */\n      add\n        /* \"#utility.yul\":500:528   */\n      and\n        /* \"#utility.yul\":490:528   */\n      swap1\n      pop\n        /* \"#utility.yul\":432:534   */\n      swap2\n      swap1\n      pop\n      jump\t// out\n        /* \"#utility.yul\":540:917   */\n    tag_53:\n        /* \"#utility.yul\":628:631   */\n      0x00\n        /* \"#utility.yul\":656:695   */\n      tag_94\n        /* \"#utility.yul\":689:694   */\n      dup3\n        /* \"#utility.yul\":656:695   */\n      tag_49\n      jump\t// in\n    tag_94:\n        /* \"#utility.yul\":711:782   */\n      tag_95\n        /* \"#utility.yul\":775:781   */\n      dup2\n        /* \"#utility.yul\":770:773   */\n      dup6\n        /* \"#utility.yul\":711:782   */\n      tag_50\n      jump\t// in\n    tag_95:\n        /* \"#utility.yul\":704:782   */\n      swap4\n      pop\n        /* \"#utility.yul\":791:856   */\n      tag_96\n        /* \"#utility.yul\":849:855   */\n      dup2\n        /* \"#utility.yul\":844:847   */\n      dup6\n        /* \"#utility.yul\":837:841   */\n      0x20\n        /* \"#utility.yul\":830:835   */\n      dup7\n        /* \"#utility.yul\":826:842   */\n      add\n        /* \"#utility.yul\":791:856   */\n      tag_51\n      jump\t// in\n    tag_96:\n        /* \"#utility.yul\":881:910   */\n      tag_97\n        /* \"#utility.yul\":903:909   */\n      dup2\n        /* \"#utility.yul\":881:910   */\n      tag_52\n      jump\t// in\n    tag_97:\n        /* \"#utility.yul\":876:879   */\n      dup5\n        /* \"#utility.yul\":872:911   */\n      add\n        /* \"#utility.yul\":865:911   */\n      swap2\n      pop\n        /* \"#utility.yul\":632:917   */\n      pop\n        /* \"#utility.yul\":540:917   */\n      swap3\n      swap2\n      pop\n      pop\n      jump\t// out\n        /* \"#utility.yul\":923:1236   */\n    tag_10:\n        /* \"#utility.yul\":1036:1040   */\n      0x00\n        /* \"#utility.yul\":1074:1076   */\n      0x20\n        /* \"#utility.yul\":1063:1072   */\n      dup3\n        /* \"#utility.yul\":1059:1077   */\n      add\n        /* \"#utility.yul\":1051:1077   */\n      swap1\n      pop\n        /* \"#utility.yul\":1123:1132   */\n      dup2\n        /* \"#utility.yul\":1117:1121   */\n      dup2\n        /* \"#utility.yul\":1113:1133   */\n      sub\n        /* \"#utility.yul\":1109:1110   */\n      0x00\n        /* \"#utility.yul\":1098:1107   */\n      dup4\n        /* \"#utility.yul\":1094:1111   */\n      add\n        /* \"#utility.yul\":1087:1134   */\n      mstore\n        /* \"#utility.yul\":1151:1229   */\n      tag_99\n        /* \"#utility.yul\":1224:1228   */\n      dup2\n        /* \"#utility.yul\":1215:1221   */\n      dup5\n        /* \"#utility.yul\":1151:1229   */\n      tag_53\n      jump\t// in\n    tag_99:\n        /* \"#utility.yul\":1143:1229   */\n      swap1\n      pop\n        /* \"#utility.yul\":923:1236   */\n      swap3\n      swap2\n      pop\n      pop\n      jump\t// out\n        /* \"#utility.yul\":1242:1332   */\n    tag_54:\n        /* \"#utility.yul\":1276:1283   */\n      0x00\n        /* \"#utility.yul\":1319:1324   */\n      dup2\n        /* \"#utility.yul\":1312:1325   */\n      iszero\n        /* \"#utility.yul\":1305:1326   */\n      iszero\n        /* \"#utility.yul\":1294:1326   */\n      swap1\n      pop\n        /* \"#utility.yul\":1242:1332   */\n      swap2\n      swap1\n      pop\n      jump\t// out\n        /* \"#utility.yul\":1338:1447   */\n    tag_55:\n        /* \"#utility.yul\":1419:1440   */\n      tag_102\n        /* \"#utility.yul\":1434:1439   */\n      dup2\n        /* \"#utility.yul\":1419:1440   */\n      tag_54\n      jump\t// in\n    tag_102:\n        /* \"#utility.yul\":1414:1417   */\n      dup3\n        /* \"#utility.yul\":1407:1441   */\n      mstore\n        /* \"#utility.yul\":1338:1447   */\n      pop\n      pop\n      jump\t// out\n        /* \"#utility.yul\":1453:1663   */\n    tag_14:\n        /* \"#utility.yul\":1540:1544   */\n      0x00\n        /* \"#utility.yul\":1578:1580   */\n      0x20\n        /* \"#utility.yul\":1567:1576   */\n      dup3\n        /* \"#utility.yul\":1563:1581   */\n      add\n        /* \"#utility.yul\":1555:1581   */\n      swap1\n      pop\n        /* \"#utility.yul\":1591:1656   */\n      tag_104\n        /* \"#utility.yul\":1653:1654   */\n      0x00\n        /* \"#utility.yul\":1642:1651   */\n      dup4\n        /* \"#utility.yul\":1638:1655   */\n      add\n        /* \"#utility.yul\":1629:1635   */\n      dup5\n        /* \"#utility.yul\":1591:1656   */\n      tag_55\n      jump\t// in\n    tag_104:\n        /* \"#utility.yul\":1453:1663   */\n      swap3\n      swap2\n      pop\n      pop\n      jump\t// out\n        /* \"#utility.yul\":1669:1744   */\n    tag_56:\n        /* \"#utility.yul\":1702:1708   */\n      0x00\n        /* \"#utility.yul\":1735:1737   */\n      0x40\n        /* \"#utility.yul\":1729:1738   */\n      mload\n        /* \"#utility.yul\":1719:1738   */\n      swap1\n      pop\n        /* \"#utility.yul\":1669:1744   */\n      swap1\n      jump\t// out\n        /* \"#utility.yul\":1750:1867   */\n    tag_57:\n        /* \"#utility.yul\":1859:1860   */\n      0x00\n        /* \"#utility.yul\":1856:1857   */\n      0x00\n        /* \"#utility.yul\":1849:1861   */\n      revert\n        /* \"#utility.yul\":1873:1990   */\n    tag_58:\n        /* \"#utility.yul\":1982:1983   */\n      0x00\n        /* \"#utility.yul\":1979:1980   */\n      0x00\n        /* \"#utility.yul\":1972:1984   */\n      revert\n        /* \"#utility.yul\":1996:2113   */\n    tag_59:\n        /* \"#utility.yul\":2105:2106   */\n      0x00\n        /* \"#utility.yul\":2102:2103   */\n      0x00\n        /* \"#utility.yul\":2095:2107   */\n      revert\n        /* \"#utility.yul\":2119:2236   */\n    tag_60:\n        /* \"#utility.yul\":2228:2229   */\n      0x00\n        /* \"#utility.yul\":2225:2226   */\n      0x00\n        /* \"#utility.yul\":2218:2230   */\n      revert\n        /* \"#utility.yul\":2242:2422   */\n    tag_61:\n        /* \"#utility.yul\":2290:2367   */\n      0x4e487b7100000000000000000000000000000000000000000000000000000000\n        /* \"#utility.yul\":2287:2288   */\n      0x00\n        /* \"#utility.yul\":2280:2368   */\n      mstore\n        /* \"#utility.yul\":2387:2391   */\n      0x41\n        /* \"#utility.yul\":2384:2385   */\n      0x04\n        /* \"#utility.yul\":2377:2392   */\n      mstore\n        /* \"#utility.yul\":2411:2415   */\n      0x24\n        /* \"#utility.yul\":2408:2409   */\n      0x00\n        /* \"#utility.yul\":2401:2416   */\n      revert\n        /* \"#utility.yul\":2428:2709   */\n    tag_62:\n        /* \"#utility.yul\":2511:2538   */\n      tag_112\n        /* \"#utility.yul\":2533:2537   */\n      dup3\n        /* \"#utility.yul\":2511:2538   */\n      tag_52\n      jump\t// in\n    tag_112:\n        /* \"#utility.yul\":2503:2509   */\n      dup2\n        /* \"#utility.yul\":2499:2539   */\n      add\n        /* \"#utility.yul\":2641:2647   */\n      dup2\n        /* \"#utility.yul\":2629:2639   */\n      dup2\n        /* \"#utility.yul\":2626:2648   */\n      lt\n        /* \"#utility.yul\":2605:2623   */\n      0xffffffffffffffff\n        /* \"#utility.yul\":2593:2603   */\n      dup3\n        /* \"#utility.yul\":2590:2624   */\n      gt\n        /* \"#utility.yul\":2587:2649   */\n      or\n        /* \"#utility.yul\":2584:2672   */\n      iszero\n      tag_113\n      jumpi\n        /* \"#utility.yul\":2652:2670   */\n      tag_114\n      tag_61\n      jump\t// in\n    tag_114:\n        /* \"#utility.yul\":2584:2672   */\n    tag_113:\n        /* \"#utility.yul\":2692:2702   */\n      dup1\n        /* \"#utility.yul\":2688:2690   */\n      0x40\n        /* \"#utility.yul\":2681:2703   */\n      mstore\n        /* \"#utility.yul\":2471:2709   */\n      pop\n        /* \"#utility.yul\":2428:2709   */\n      pop\n      pop\n      jump\t// out\n        /* \"#utility.yul\":2715:2844   */\n    tag_63:\n        /* \"#utility.yul\":2749:2755   */\n      0x00\n        /* \"#utility.yul\":2776:2796   */\n      tag_116\n      tag_56\n      jump\t// in\n    tag_116:\n        /* \"#utility.yul\":2766:2796   */\n      swap1\n      pop\n        /* \"#utility.yul\":2805:2838   */\n      tag_117\n        /* \"#utility.yul\":2833:2837   */\n      dup3\n        /* \"#utility.yul\":2825:2831   */\n      dup3\n        /* \"#utility.yul\":2805:2838   */\n      tag_62\n      jump\t// in\n    tag_117:\n        /* \"#utility.yul\":2715:2844   */\n      swap2\n      swap1\n      pop\n      jump\t// out\n        /* \"#utility.yul\":2850:3158   */\n    tag_64:\n        /* \"#utility.yul\":2912:2916   */\n      0x00\n        /* \"#utility.yul\":3002:3020   */\n      0xffffffffffffffff\n        /* \"#utility.yul\":2994:3000   */\n      dup3\n        /* \"#utility.yul\":2991:3021   */\n      gt\n        /* \"#utility.yul\":2988:3044   */\n      iszero\n      tag_119\n      jumpi\n        /* \"#utility.yul\":3024:3042   */\n      tag_120\n      tag_61\n      jump\t// in\n    tag_120:\n        /* \"#utility.yul\":2988:3044   */\n    tag_119:\n        /* \"#utility.yul\":3062:3091   */\n      tag_121\n        /* \"#utility.yul\":3084:3090   */\n      dup3\n        /* \"#utility.yul\":3062:3091   */\n      tag_52\n      jump\t// in\n    tag_121:\n        /* \"#utility.yul\":3054:3091   */\n      swap1\n      pop\n        /* \"#utility.yul\":3146:3150   */\n      0x20\n        /* \"#utility.yul\":3140:3144   */\n      dup2\n        /* \"#utility.yul\":3136:3151   */\n      add\n        /* \"#utility.yul\":3128:3151   */\n      swap1\n      pop\n        /* \"#utility.yul\":2850:3158   */\n      swap2\n      swap1\n      pop\n      jump\t// out\n        /* \"#utility.yul\":3164:3312   */\n    tag_65:\n        /* \"#utility.yul\":3262:3268   */\n      dup3\n        /* \"#utility.yul\":3257:3260   */\n      dup2\n        /* \"#utility.yul\":3252:3255   */\n      dup4\n        /* \"#utility.yul\":3239:3269   */\n      calldatacopy\n        /* \"#utility.yul\":3303:3304   */\n      0x00\n        /* \"#utility.yul\":3294:3300   */\n      dup4\n        /* \"#utility.yul\":3289:3292   */\n      dup4\n        /* \"#utility.yul\":3285:3301   */\n      add\n        /* \"#utility.yul\":3278:3305   */\n      mstore\n        /* \"#utility.yul\":3164:3312   */\n      pop\n      pop\n      pop\n      jump\t// out\n        /* \"#utility.yul\":3318:3743   */\n    tag_66:\n        /* \"#utility.yul\":3396:3401   */\n      0x00\n        /* \"#utility.yul\":3421:3487   */\n      tag_124\n        /* \"#utility.yul\":3437:3486   */\n      tag_125\n        /* \"#utility.yul\":3479:3485   */\n      dup5\n        /* \"#utility.yul\":3437:3486   */\n      tag_64\n      jump\t// in\n    tag_125:\n        /* \"#utility.yul\":3421:3487   */\n      tag_63\n      jump\t// in\n    tag_124:\n        /* \"#utility.yul\":3412:3487   */\n      swap1\n      pop\n        /* \"#utility.yul\":3510:3516   */\n      dup3\n        /* \"#utility.yul\":3503:3508   */\n      dup2\n        /* \"#utility.yul\":3496:3517   */\n      mstore\n        /* \"#utility.yul\":3548:3552   */\n      0x20\n        /* \"#utility.yul\":3541:3546   */\n      dup2\n        /* \"#utility.yul\":3537:3553   */\n      add\n        /* \"#utility.yul\":3586:3589   */\n      dup5\n        /* \"#utility.yul\":3577:3583   */\n      dup5\n        /* \"#utility.yul\":3572:3575   */\n      dup5\n        /* \"#utility.yul\":3568:3584   */\n      add\n        /* \"#utility.yul\":3565:3590   */\n      gt\n        /* \"#utility.yul\":3562:3674   */\n      iszero\n      tag_126\n      jumpi\n        /* \"#utility.yul\":3593:3672   */\n      tag_127\n      tag_60\n      jump\t// in\n    tag_127:\n        /* \"#utility.yul\":3562:3674   */\n    tag_126:\n        /* \"#utility.yul\":3683:3737   */\n      tag_128\n        /* \"#utility.yul\":3730:3736   */\n      dup5\n        /* \"#utility.yul\":3725:3728   */\n      dup3\n        /* \"#utility.yul\":3720:3723   */\n      dup6\n        /* \"#utility.yul\":3683:3737   */\n      tag_65\n      jump\t// in\n    tag_128:\n        /* \"#utility.yul\":3402:3743   */\n      pop\n        /* \"#utility.yul\":3318:3743   */\n      swap4\n      swap3\n      pop\n      pop\n      pop\n      jump\t// out\n        /* \"#utility.yul\":3763:4103   */\n    tag_67:\n        /* \"#utility.yul\":3819:3824   */\n      0x00\n        /* \"#utility.yul\":3868:3871   */\n      dup3\n        /* \"#utility.yul\":3861:3865   */\n      0x1f\n        /* \"#utility.yul\":3853:3859   */\n      dup4\n        /* \"#utility.yul\":3849:3866   */\n      add\n        /* \"#utility.yul\":3845:3872   */\n      slt\n        /* \"#utility.yul\":3835:3957   */\n      tag_130\n      jumpi\n        /* \"#utility.yul\":3876:3955   */\n      tag_131\n      tag_59\n      jump\t// in\n    tag_131:\n        /* \"#utility.yul\":3835:3957   */\n    tag_130:\n        /* \"#utility.yul\":3993:3999   */\n      dup2\n        /* \"#utility.yul\":3980:4000   */\n      calldataload\n        /* \"#utility.yul\":4018:4097   */\n      tag_132\n        /* \"#utility.yul\":4093:4096   */\n      dup5\n        /* \"#utility.yul\":4085:4091   */\n      dup3\n        /* \"#utility.yul\":4078:4082   */\n      0x20\n        /* \"#utility.yul\":4070:4076   */\n      dup7\n        /* \"#utility.yul\":4066:4083   */\n      add\n        /* \"#utility.yul\":4018:4097   */\n      tag_66\n      jump\t// in\n    tag_132:\n        /* \"#utility.yul\":4009:4097   */\n      swap2\n      pop\n        /* \"#utility.yul\":3825:4103   */\n      pop\n        /* \"#utility.yul\":3763:4103   */\n      swap3\n      swap2\n      pop\n      pop\n      jump\t// out\n        /* \"#utility.yul\":4109:4618   */\n    tag_17:\n        /* \"#utility.yul\":4178:4184   */\n      0x00\n        /* \"#utility.yul\":4227:4229   */\n      0x20\n        /* \"#utility.yul\":4215:4224   */\n      dup3\n        /* \"#utility.yul\":4206:4213   */\n      dup5\n        /* \"#utility.yul\":4202:4225   */\n      sub\n        /* \"#utility.yul\":4198:4230   */\n      slt\n        /* \"#utility.yul\":4195:4314   */\n      iszero\n      tag_134\n      jumpi\n        /* \"#utility.yul\":4233:4312   */\n      tag_135\n      tag_57\n      jump\t// in\n    tag_135:\n        /* \"#utility.yul\":4195:4314   */\n    tag_134:\n        /* \"#utility.yul\":4381:4382   */\n      0x00\n        /* \"#utility.yul\":4370:4379   */\n      dup3\n        /* \"#utility.yul\":4366:4383   */\n      add\n        /* \"#utility.yul\":4353:4384   */\n      calldataload\n        /* \"#utility.yul\":4411:4429   */\n      0xffffffffffffffff\n        /* \"#utility.yul\":4403:4409   */\n      dup2\n        /* \"#utility.yul\":4400:4430   */\n      gt\n        /* \"#utility.yul\":4397:4514   */\n      iszero\n      tag_136\n      jumpi\n        /* \"#utility.yul\":4433:4512   */\n      tag_137\n      tag_58\n      jump\t// in\n    tag_137:\n        /* \"#utility.yul\":4397:4514   */\n    tag_136:\n        /* \"#utility.yul\":4538:4601   */\n      tag_138\n        /* \"#utility.yul\":4593:4600   */\n      dup5\n        /* \"#utility.yul\":4584:4590   */\n      dup3\n        /* \"#utility.yul\":4573:4582   */\n      dup6\n        /* \"#utility.yul\":4569:4591   */\n      add\n        /* \"#utility.yul\":4538:4601   */\n      tag_67\n      jump\t// in\n    tag_138:\n        /* \"#utility.yul\":4528:4601   */\n      swap2\n      pop\n        /* \"#utility.yul\":4324:4611   */\n      pop\n        /* \"#utility.yul\":4109:4618   */\n      swap3\n      swap2\n      pop\n      pop\n      jump\t// out\n        /* \"#utility.yul\":4624:4804   */\n    tag_68:\n        /* \"#utility.yul\":4672:4749   */\n      0x4e487b7100000000000000000000000000000000000000000000000000000000\n        /* \"#utility.yul\":4669:4670   */\n      0x00\n        /* \"#utility.yul\":4662:4750   */\n      mstore\n        /* \"#utility.yul\":4769:4773   */\n      0x22\n        /* \"#utility.yul\":4766:4767   */\n      0x04\n        /* \"#utility.yul\":4759:4774   */\n      mstore\n        /* \"#utility.yul\":4793:4797   */\n      0x24\n        /* \"#utility.yul\":4790:4791   */\n      0x00\n        /* \"#utility.yul\":4783:4798   */\n      revert\n        /* \"#utility.yul\":4810:5130   */\n    tag_24:\n        /* \"#utility.yul\":4854:4860   */\n      0x00\n        /* \"#utility.yul\":4891:4892   */\n      0x02\n        /* \"#utility.yul\":4885:4889   */\n      dup3\n        /* \"#utility.yul\":4881:4893   */\n      div\n        /* \"#utility.yul\":4871:4893   */\n      swap1\n      pop\n        /* \"#utility.yul\":4938:4939   */\n      0x01\n        /* \"#utility.yul\":4932:4936   */\n      dup3\n        /* \"#utility.yul\":4928:4940   */\n      and\n        /* \"#utility.yul\":4959:4977   */\n      dup1\n        /* \"#utility.yul\":4949:5030   */\n      tag_141\n      jumpi\n        /* \"#utility.yul\":5015:5019   */\n      0x7f\n        /* \"#utility.yul\":5007:5013   */\n      dup3\n        /* \"#utility.yul\":5003:5020   */\n      and\n        /* \"#utility.yul\":4993:5020   */\n      swap2\n      pop\n        /* \"#utility.yul\":4949:5030   */\n    tag_141:\n        /* \"#utility.yul\":5077:5079   */\n      0x20\n        /* \"#utility.yul\":5069:5075   */\n      dup3\n        /* \"#utility.yul\":5066:5080   */\n      lt\n        /* \"#utility.yul\":5046:5064   */\n      dup2\n        /* \"#utility.yul\":5043:5081   */\n      sub\n        /* \"#utility.yul\":5040:5124   */\n      tag_142\n      jumpi\n        /* \"#utility.yul\":5096:5114   */\n      tag_143\n      tag_68\n      jump\t// in\n    tag_143:\n        /* \"#utility.yul\":5040:5124   */\n    tag_142:\n        /* \"#utility.yul\":4861:5130   */\n      pop\n        /* \"#utility.yul\":4810:5130   */\n      swap2\n      swap1\n      pop\n      jump\t// out\n        /* \"#utility.yul\":5136:5277   */\n    tag_69:\n        /* \"#utility.yul\":5185:5189   */\n      0x00\n        /* \"#utility.yul\":5208:5211   */\n      dup2\n        /* \"#utility.yul\":5200:5211   */\n      swap1\n      pop\n        /* \"#utility.yul\":5231:5234   */\n      dup2\n        /* \"#utility.yul\":5228:5229   */\n      0x00\n        /* \"#utility.yul\":5221:5235   */\n      mstore\n        /* \"#utility.yul\":5265:5269   */\n      0x20\n        /* \"#utility.yul\":5262:5263   */\n      0x00\n        /* \"#utility.yul\":5252:5270   */\n      keccak256\n        /* \"#utility.yul\":5244:5270   */\n      swap1\n      pop\n        /* \"#utility.yul\":5136:5277   */\n      swap2\n      swap1\n      pop\n      jump\t// out\n        /* \"#utility.yul\":5283:5376   */\n    tag_70:\n        /* \"#utility.yul\":5320:5326   */\n      0x00\n        /* \"#utility.yul\":5367:5369   */\n      0x20\n        /* \"#utility.yul\":5362:5364   */\n      0x1f\n        /* \"#utility.yul\":5355:5360   */\n      dup4\n        /* \"#utility.yul\":5351:5365   */\n      add\n        /* \"#utility.yul\":5347:5370   */\n      div\n        /* \"#utility.yul\":5337:5370   */\n      swap1\n      pop\n        /* \"#utility.yul\":5283:5376   */\n      swap2\n      swap1\n      pop\n      jump\t// out\n        /* \"#utility.yul\":5382:5489   */\n    tag_71:\n        /* \"#utility.yul\":5426:5434   */\n      0x00\n        /* \"#utility.yul\":5476:5481   */\n      dup3\n        /* \"#utility.yul\":5470:5474   */\n      dup3\n        /* \"#utility.yul\":5466:5482   */\n      shl\n        /* \"#utility.yul\":5445:5482   */\n      swap1\n      pop\n        /* \"#utility.yul\":5382:5489   */\n      swap3\n      swap2\n      pop\n      pop\n      jump\t// out\n        /* \"#utility.yul\":5495:5888   */\n    tag_72:\n        /* \"#utility.yul\":5564:5570   */\n      0x00\n        /* \"#utility.yul\":5614:5615   */\n      0x08\n        /* \"#utility.yul\":5602:5612   */\n      dup4\n        /* \"#utility.yul\":5598:5616   */\n      mul\n        /* \"#utility.yul\":5637:5734   */\n      tag_148\n        /* \"#utility.yul\":5667:5733   */\n      0xffffffffffffffffffffffffffffffffffffffffffffffffffffffffffffffff\n        /* \"#utility.yul\":5656:5665   */\n      dup3\n        /* \"#utility.yul\":5637:5734   */\n      tag_71\n      jump\t// in\n    tag_148:\n        /* \"#utility.yul\":5755:5794   */\n      tag_149\n        /* \"#utility.yul\":5785:5793   */\n      dup7\n        /* \"#utility.yul\":5774:5783   */\n      dup4\n        /* \"#utility.yul\":5755:5794   */\n      tag_71\n      jump\t// in\n    tag_149:\n        /* \"#utility.yul\":5743:5794   */\n      swap6\n      pop\n        /* \"#utility.yul\":5827:5831   */\n      dup1\n        /* \"#utility.yul\":5823:5832   */\n      not\n        /* \"#utility.yul\":5816:5821   */\n      dup5\n        /* \"#utility.yul\":5812:5833   */\n      and\n        /* \"#utility.yul\":5803:5833   */\n      swap4\n      pop\n        /* \"#utility.yul\":5876:5880   */\n      dup1\n        /* \"#utility.yul\":5866:5874   */\n      dup7\n        /* \"#utility.yul\":5862:5881   */\n      and\n        /* \"#utility.yul\":5855:5860   */\n      dup5\n        /* \"#utility.yul\":5852:5882   */\n      or\n        /* \"#utility.yul\":5842:5882   */\n      swap3\n      pop\n        /* \"#utility.yul\":5571:5888   */\n      pop\n      pop\n        /* \"#utility.yul\":5495:5888   */\n      swap4\n      swap3\n      pop\n      pop\n      pop\n      jump\t// out\n        /* \"#utility.yul\":5894:5971   */\n    tag_73:\n        /* \"#utility.yul\":5931:5938   */\n      0x00\n        /* \"#utility.yul\":5960:5965   */\n      dup2\n        /* \"#utility.yul\":5949:5965   */\n      swap1\n      pop\n        /* \"#utility.yul\":5894:5971   */\n      swap2\n      swap1\n      pop\n      jump\t// out\n        /* \"#utility.yul\":5977:6037   */\n    tag_74:\n        /* \"#utility.yul\":6005:6008   */\n      0x00\n        /* \"#utility.yul\":6026:6031   */\n      dup2\n        /* \"#utility.yul\":6019:6031   */\n      swap1\n      pop\n        /* \"#utility.yul\":5977:6037   */\n      swap2\n      swap1\n      pop\n      jump\t// out\n        /* \"#utility.yul\":6043:6185   */\n    tag_75:\n        /* \"#utility.yul\":6093:6102   */\n      0x00\n        /* \"#utility.yul\":6126:6179   */\n      tag_153\n        /* \"#utility.yul\":6144:6178   */\n      tag_154\n        /* \"#utility.yul\":6153:6177   */\n      tag_155\n        /* \"#utility.yul\":6171:6176   */\n      dup5\n        /* \"#utility.yul\":6153:6177   */\n      tag_73\n      jump\t// in\n    tag_155:\n        /* \"#utility.yul\":6144:6178   */\n      tag_74\n      jump\t// in\n    tag_154:\n        /* \"#utility.yul\":6126:6179   */\n      tag_73\n      jump\t// in\n    tag_153:\n        /* \"#utility.yul\":6113:6179   */\n      swap1\n      pop\n        /* \"#utility.yul\":6043:6185   */\n      swap2\n      swap1\n      pop\n      jump\t// out\n        /* \"#utility.yul\":6191:6266   */\n    tag_76:\n        /* \"#utility.yul\":6234:6237   */\n      0x00\n        /* \"#utility.yul\":6255:6260   */\n      dup2\n        /* \"#utility.yul\":6248:6260   */\n      swap1\n      pop\n        /* \"#utility.yul\":6191:6266   */\n      swap2\n      swap1\n      pop\n      jump\t// out\n        /* \"#utility.yul\":6272:6541   */\n    tag_77:\n        /* \"#utility.yul\":6382:6421   */\n      tag_158\n        /* \"#utility.yul\":6413:6420   */\n      dup4\n        /* \"#utility.yul\":6382:6421   */\n      tag_75\n      jump\t// in\n    tag_158:\n        /* \"#utility.yul\":6443:6534   */\n      tag_159\n        /* \"#utility.yul\":6492:6533   */\n      tag_160\n        /* \"#utility.yul\":6516:6532   */\n      dup3\n        /* \"#utility.yul\":6492:6533   */\n      tag_76\n      jump\t// in\n    tag_160:\n        /* \"#utility.yul\":6484:6490   */\n      dup5\n        /* \"#utility.yul\":6477:6481   */\n      dup5\n        /* \"#utility.yul\":6471:6482   */\n      sload\n        /* \"#utility.yul\":6443:6534   */\n      tag_72\n      jump\t// in\n    tag_159:\n        /* \"#utility.yul\":6437:6441   */\n      dup3\n        /* \"#utility.yul\":6430:6535   */\n      sstore\n        /* \"#utility.yul\":6348:6541   */\n      pop\n        /* \"#utility.yul\":6272:6541   */\n      pop\n      pop\n      pop\n      jump\t// out\n        /* \"#utility.yul\":6547:6620   */\n    tag_78:\n        /* \"#utility.yul\":6592:6595   */\n      0x00\n        /* \"#utility.yul\":6613:6614   */\n      0x00\n        /* \"#utility.yul\":6606:6614   */\n      swap1\n      pop\n        /* \"#utility.yul\":6547:6620   */\n      swap1\n      jump\t// out\n        /* \"#utility.yul\":6626:6815   */\n    tag_79:\n        /* \"#utility.yul\":6703:6735   */\n      tag_163\n      tag_78\n      jump\t// in\n    tag_163:\n        /* \"#utility.yul\":6744:6809   */\n      tag_164\n        /* \"#utility.yul\":6802:6808   */\n      dup2\n        /* \"#utility.yul\":6794:6800   */\n      dup5\n        /* \"#utility.yul\":6788:6792   */\n      dup5\n        /* \"#utility.yul\":6744:6809   */\n      tag_77\n      jump\t// in\n    tag_164:\n        /* \"#utility.yul\":6679:6815   */\n      pop\n        /* \"#utility.yul\":6626:6815   */\n      pop\n      pop\n      jump\t// out\n        /* \"#utility.yul\":6821:7007   */\n    tag_80:\n        /* \"#utility.yul\":6881:7001   */\n    tag_166:\n        /* \"#utility.yul\":6898:6901   */\n      dup2\n        /* \"#utility.yul\":6891:6896   */\n      dup2\n        /* \"#utility.yul\":6888:6902   */\n      lt\n        /* \"#utility.yul\":6881:7001   */\n      iszero\n      tag_168\n      jumpi\n        /* \"#utility.yul\":6952:6991   */\n      tag_169\n        /* \"#utility.yul\":6989:6990   */\n      0x00\n        /* \"#utility.yul\":6982:6987   */\n      dup3\n        /* \"#utility.yul\":6952:6991   */\n      tag_79\n      jump\t// in\n    tag_169:\n        /* \"#utility.yul\":6925:6926   */\n      0x01\n        /* \"#utility.yul\":6918:6923   */\n      dup2\n        /* \"#utility.yul\":6914:6927   */\n      add\n        /* \"#utility.yul\":6905:6927   */\n      swap1\n      pop\n        /* \"#utility.yul\":6881:7001   */\n      jump(tag_166)\n    tag_168:\n        /* \"#utility.yul\":6821:7007   */\n      pop\n      pop\n      jump\t// out\n        /* \"#utility.yul\":7013:7556   */\n    tag_81:\n        /* \"#utility.yul\":7114:7116   */\n      0x1f\n        /* \"#utility.yul\":7109:7112   */\n      dup3\n        /* \"#utility.yul\":7106:7117   */\n      gt\n        /* \"#utility.yul\":7103:7549   */\n      iszero\n      tag_171\n      jumpi\n        /* \"#utility.yul\":7148:7186   */\n      tag_172\n        /* \"#utility.yul\":7180:7185   */\n      dup2\n        /* \"#utility.yul\":7148:7186   */\n      tag_69\n      jump\t// in\n    tag_172:\n        /* \"#utility.yul\":7232:7261   */\n      tag_173\n        /* \"#utility.yul\":7250:7260   */\n      dup5\n        /* \"#utility.yul\":7232:7261   */\n      tag_70\n      jump\t// in\n    tag_173:\n        /* \"#utility.yul\":7222:7230   */\n      dup2\n        /* \"#utility.yul\":7218:7262   */\n      add\n        /* \"#utility.yul\":7415:7417   */\n      0x20\n        /* \"#utility.yul\":7403:7413   */\n      dup6\n        /* \"#utility.yul\":7400:7418   */\n      lt\n        /* \"#utility.yul\":7397:7446   */\n      iszero\n      tag_174\n      jumpi\n        /* \"#utility.yul\":7436:7444   */\n      dup2\n        /* \"#utility.yul\":7421:7444   */\n      swap1\n      pop\n        /* \"#utility.yul\":7397:7446   */\n    tag_174:\n        /* \"#utility.yul\":7459:7539   */\n      tag_175\n        /* \"#utility.yul\":7515:7537   */\n      tag_176\n        /* \"#utility.yul\":7533:7536   */\n      dup6\n        /* \"#utility.yul\":7515:7537   */\n      tag_70\n      jump\t// in\n    tag_176:\n        /* \"#utility.yul\":7505:7513   */\n      dup4\n        /* \"#utility.yul\":7501:7538   */\n      add\n        /* \"#utility.yul\":7488:7499   */\n      dup3\n        /* \"#utility.yul\":7459:7539   */\n      tag_80\n      jump\t// in\n    tag_175:\n        /* \"#utility.yul\":7118:7549   */\n      pop\n      pop\n        /* \"#utility.yul\":7103:7549   */\n    tag_171:\n        /* \"#utility.yul\":7013:7556   */\n      pop\n      pop\n      pop\n      jump\t// out\n        /* \"#utility.yul\":7562:7679   */\n    tag_82:\n        /* \"#utility.yul\":7616:7624   */\n      0x00\n        /* \"#utility.yul\":7666:7671   */\n      dup3\n        /* \"#utility.yul\":7660:7664   */\n      dup3\n        /* \"#utility.yul\":7656:7672   */\n      shr\n        /* \"#utility.yul\":7635:7672   */\n      swap1\n      pop\n        /* \"#utility.yul\":7562:7679   */\n      swap3\n      swap2\n      pop\n      pop\n      jump\t// out\n        /* \"#utility.yul\":7685:7854   */\n    tag_83:\n        /* \"#utility.yul\":7729:7735   */\n      0x00\n        /* \"#utility.yul\":7762:7813   */\n      tag_179\n        /* \"#utility.yul\":7810:7811   */\n      0x00\n        /* \"#utility.yul\":7806:7812   */\n      not\n        /* \"#utility.yul\":7798:7803   */\n      dup5\n        /* \"#utility.yul\":7795:7796   */\n      0x08\n        /* \"#utility.yul\":7791:7804   */\n      mul\n        /* \"#utility.yul\":7762:7813   */\n      tag_82\n      jump\t// in\n    tag_179:\n        /* \"#utility.yul\":7758:7814   */\n      not\n        /* \"#utility.yul\":7843:7847   */\n      dup1\n        /* \"#utility.yul\":7837:7841   */\n      dup4\n        /* \"#utility.yul\":7833:7848   */\n      and\n        /* \"#utility.yul\":7823:7848   */\n      swap2\n      pop\n        /* \"#utility.yul\":7736:7854   */\n      pop\n        /* \"#utility.yul\":7685:7854   */\n      swap3\n      swap2\n      pop\n      pop\n      jump\t// out\n        /* \"#utility.yul\":7859:8154   */\n    tag_84:\n        /* \"#utility.yul\":7935:7939   */\n      0x00\n        /* \"#utility.yul\":8081:8110   */\n      tag_181\n        /* \"#utility.yul\":8106:8109   */\n      dup4\n        /* \"#utility.yul\":8100:8104   */\n      dup4\n        /* \"#utility.yul\":8081:8110   */\n      tag_83\n      jump\t// in\n    tag_181:\n        /* \"#utility.yul\":8073:8110   */\n      swap2\n      pop\n        /* \"#utility.yul\":8143:8146   */\n      dup3\n        /* \"#utility.yul\":8140:8141   */\n      0x02\n        /* \"#utility.yul\":8136:8147   */\n      mul\n        /* \"#utility.yul\":8130:8134   */\n      dup3\n        /* \"#utility.yul\":8127:8148   */\n      or\n        /* \"#utility.yul\":8119:8148   */\n      swap1\n      pop\n        /* \"#utility.yul\":7859:8154   */\n      swap3\n      swap2\n      pop\n      pop\n      jump\t// out\n        /* \"#utility.yul\":8159:9554   */\n    tag_37:\n        /* \"#utility.yul\":8276:8313   */\n      tag_183\n        /* \"#utility.yul\":8309:8312   */\n      dup3\n        /* \"#utility.yul\":8276:8313   */\n      tag_49\n      jump\t// in\n    tag_183:\n        /* \"#utility.yul\":8378:8396   */\n      0xffffffffffffffff\n        /* \"#utility.yul\":8370:8376   */\n      dup2\n        /* \"#utility.yul\":8367:8397   */\n      gt\n        /* \"#utility.yul\":8364:8420   */\n      iszero\n      tag_184\n      jumpi\n        /* \"#utility.yul\":8400:8418   */\n      tag_185\n      tag_61\n      jump\t// in\n    tag_185:\n        /* \"#utility.yul\":8364:8420   */\n    tag_184:\n        /* \"#utility.yul\":8444:8482   */\n      tag_186\n        /* \"#utility.yul\":8476:8480   */\n      dup3\n        /* \"#utility.yul\":8470:8481   */\n      sload\n        /* \"#utility.yul\":8444:8482   */\n      tag_24\n      jump\t// in\n    tag_186:\n        /* \"#utility.yul\":8529:8596   */\n      tag_187\n        /* \"#utility.yul\":8589:8595   */\n      dup3\n        /* \"#utility.yul\":8581:8587   */\n      dup3\n        /* \"#utility.yul\":8575:8579   */\n      dup6\n        /* \"#utility.yul\":8529:8596   */\n      tag_81\n      jump\t// in\n    tag_187:\n        /* \"#utility.yul\":8623:8624   */\n      0x00\n        /* \"#utility.yul\":8647:8651   */\n      0x20\n        /* \"#utility.yul\":8634:8651   */\n      swap1\n      pop\n        /* \"#utility.yul\":8679:8681   */\n      0x1f\n        /* \"#utility.yul\":8671:8677   */\n      dup4\n        /* \"#utility.yul\":8668:8682   */\n      gt\n        /* \"#utility.yul\":8696:8697   */\n      0x01\n        /* \"#utility.yul\":8691:9309   */\n      dup2\n      eq\n      tag_189\n      jumpi\n        /* \"#utility.yul\":9353:9354   */\n      0x00\n        /* \"#utility.yul\":9370:9376   */\n      dup5\n        /* \"#utility.yul\":9367:9444   */\n      iszero\n      tag_190\n      jumpi\n        /* \"#utility.yul\":9419:9428   */\n      dup3\n        /* \"#utility.yul\":9414:9417   */\n      dup8\n        /* \"#utility.yul\":9410:9429   */\n      add\n        /* \"#utility.yul\":9404:9430   */\n      mload\n        /* \"#utility.yul\":9395:9430   */\n      swap1\n      pop\n        /* \"#utility.yul\":9367:9444   */\n    tag_190:\n        /* \"#utility.yul\":9470:9537   */\n      tag_191\n        /* \"#utility.yul\":9530:9536   */\n      dup6\n        /* \"#utility.yul\":9523:9528   */\n      dup3\n        /* \"#utility.yul\":9470:9537   */\n      tag_84\n      jump\t// in\n    tag_191:\n        /* \"#utility.yul\":9464:9468   */\n      dup7\n        /* \"#utility.yul\":9457:9538   */\n      sstore\n        /* \"#utility.yul\":9326:9548   */\n      pop\n        /* \"#utility.yul\":8661:9548   */\n      jump(tag_188)\n        /* \"#utility.yul\":8691:9309   */\n    tag_189:\n        /* \"#utility.yul\":8743:8747   */\n      0x1f\n        /* \"#utility.yul\":8739:8748   */\n      not\n        /* \"#utility.yul\":8731:8737   */\n      dup5\n        /* \"#utility.yul\":8727:8749   */\n      and\n        /* \"#utility.yul\":8777:8814   */\n      tag_192\n        /* \"#utility.yul\":8809:8813   */\n      dup7\n        /* \"#utility.yul\":8777:8814   */\n      tag_69\n      jump\t// in\n    tag_192:\n        /* \"#utility.yul\":8836:8837   */\n      0x00\n        /* \"#utility.yul\":8850:9058   */\n    tag_193:\n        /* \"#utility.yul\":8864:8871   */\n      dup3\n        /* \"#utility.yul\":8861:8862   */\n      dup2\n        /* \"#utility.yul\":8858:8872   */\n      lt\n        /* \"#utility.yul\":8850:9058   */\n      iszero\n      tag_195\n      jumpi\n        /* \"#utility.yul\":8943:8952   */\n      dup5\n        /* \"#utility.yul\":8938:8941   */\n      dup10\n        /* \"#utility.yul\":8934:8953   */\n      add\n        /* \"#utility.yul\":8928:8954   */\n      mload\n        /* \"#utility.yul\":8920:8926   */\n      dup3\n        /* \"#utility.yul\":8913:8955   */\n      sstore\n        /* \"#utility.yul\":8994:8995   */\n      0x01\n        /* \"#utility.yul\":8986:8992   */\n      dup3\n        /* \"#utility.yul\":8982:8996   */\n      add\n        /* \"#utility.yul\":8972:8996   */\n      swap2\n      pop\n        /* \"#utility.yul\":9041:9043   */\n      0x20\n        /* \"#utility.yul\":9030:9039   */\n      dup6\n        /* \"#utility.yul\":9026:9044   */\n      add\n        /* \"#utility.yul\":9013:9044   */\n      swap5\n      pop\n        /* \"#utility.yul\":8887:8891   */\n      0x20\n        /* \"#utility.yul\":8884:8885   */\n      dup2\n        /* \"#utility.yul\":8880:8892   */\n      add\n        /* \"#utility.yul\":8875:8892   */\n      swap1\n      pop\n        /* \"#utility.yul\":8850:9058   */\n      jump(tag_193)\n    tag_195:\n        /* \"#utility.yul\":9086:9092   */\n      dup7\n        /* \"#utility.yul\":9077:9084   */\n      dup4\n        /* \"#utility.yul\":9074:9093   */\n      lt\n        /* \"#utility.yul\":9071:9250   */\n      iszero\n      tag_196\n      jumpi\n        /* \"#utility.yul\":9144:9153   */\n      dup5\n        /* \"#utility.yul\":9139:9142   */\n      dup10\n        /* \"#utility.yul\":9135:9154   */\n      add\n        /* \"#utility.yul\":9129:9155   */\n      mload\n        /* \"#utility.yul\":9187:9235   */\n      tag_197\n        /* \"#utility.yul\":9229:9233   */\n      0x1f\n        /* \"#utility.yul\":9221:9227   */\n      dup10\n        /* \"#utility.yul\":9217:9234   */\n      and\n        /* \"#utility.yul\":9206:9215   */\n      dup3\n        /* \"#utility.yul\":9187:9235   */\n      tag_83\n      jump\t// in\n    tag_197:\n        /* \"#utility.yul\":9179:9185   */\n      dup4\n        /* \"#utility.yul\":9172:9236   */\n      sstore\n        /* \"#utility.yul\":9094:9250   */\n      pop\n        /* \"#utility.yul\":9071:9250   */\n    tag_196:\n        /* \"#utility.yul\":9296:9297   */\n      0x01\n        /* \"#utility.yul\":9292:9293   */\n      0x02\n        /* \"#utility.yul\":9284:9290   */\n      dup9\n        /* \"#utility.yul\":9280:9294   */\n      mul\n        /* \"#utility.yul\":9276:9298   */\n      add\n        /* \"#utility.yul\":9270:9274   */\n      dup9\n        /* \"#utility.yul\":9263:9299   */\n      sstore\n        /* \"#utility.yul\":8698:9309   */\n      pop\n      pop\n      pop\n        /* \"#utility.yul\":8661:9548   */\n    tag_188:\n      pop\n        /* \"#utility.yul\":8251:9554   */\n      pop\n      pop\n      pop\n        /* \"#utility.yul\":8159:9554   */\n      pop\n      pop\n      jump\t// out\n        /* \"#utility.yul\":9560:9707   */\n    tag_85:\n        /* \"#utility.yul\":9661:9672   */\n      0x00\n        /* \"#utility.yul\":9698:9701   */\n      dup2\n        /* \"#utility.yul\":9683:9701   */\n      swap1\n      pop\n        /* \"#utility.yul\":9560:9707   */\n      swap3\n      swap2\n      pop\n      pop\n      jump\t// out\n        /* \"#utility.yul\":9713:9857   */\n    tag_86:\n        /* \"#utility.yul\":9765:9769   */\n      0x00\n        /* \"#utility.yul\":9788:9791   */\n      dup2\n        /* \"#utility.yul\":9780:9791   */\n      swap1\n      pop\n        /* \"#utility.yul\":9811:9814   */\n      dup2\n        /* \"#utility.yul\":9808:9809   */\n      0x00\n        /* \"#utility.yul\":9801:9815   */\n      mstore\n        /* \"#utility.yul\":9845:9849   */\n      0x20\n        /* \"#utility.yul\":9842:9843   */\n      0x00\n        /* \"#utility.yul\":9832:9850   */\n      keccak256\n        /* \"#utility.yul\":9824:9850   */\n      swap1\n      pop\n        /* \"#utility.yul\":9713:9857   */\n      swap2\n      swap1\n      pop\n      jump\t// out\n        /* \"#utility.yul\":9885:10763   */\n    tag_87:\n        /* \"#utility.yul\":9990:9993   */\n      0x00\n        /* \"#utility.yul\":10027:10032   */\n      dup2\n        /* \"#utility.yul\":10021:10033   */\n      sload\n        /* \"#utility.yul\":10056:10092   */\n      tag_201\n        /* \"#utility.yul\":10082:10091   */\n      dup2\n        /* \"#utility.yul\":10056:10092   */\n      tag_24\n      jump\t// in\n    tag_201:\n        /* \"#utility.yul\":10108:10196   */\n      tag_202\n        /* \"#utility.yul\":10189:10195   */\n      dup2\n        /* \"#utility.yul\":10184:10187   */\n      dup7\n        /* \"#utility.yul\":10108:10196   */\n      tag_85\n      jump\t// in\n    tag_202:\n        /* \"#utility.yul\":10101:10196   */\n      swap5\n      pop\n        /* \"#utility.yul\":10227:10228   */\n      0x01\n        /* \"#utility.yul\":10216:10225   */\n      dup3\n        /* \"#utility.yul\":10212:10229   */\n      and\n        /* \"#utility.yul\":10243:10244   */\n      0x00\n        /* \"#utility.yul\":10238:10404   */\n      dup2\n      eq\n      tag_204\n      jumpi\n        /* \"#utility.yul\":10418:10419   */\n      0x01\n        /* \"#utility.yul\":10413:10757   */\n      dup2\n      eq\n      tag_205\n      jumpi\n        /* \"#utility.yul\":10205:10757   */\n      jump(tag_203)\n        /* \"#utility.yul\":10238:10404   */\n    tag_204:\n        /* \"#utility.yul\":10322:10326   */\n      0xff\n        /* \"#utility.yul\":10318:10327   */\n      not\n        /* \"#utility.yul\":10307:10316   */\n      dup4\n        /* \"#utility.yul\":10303:10328   */\n      and\n        /* \"#utility.yul\":10298:10301   */\n      dup7\n        /* \"#utility.yul\":10291:10329   */\n      mstore\n        /* \"#utility.yul\":10384:10390   */\n      dup2\n        /* \"#utility.yul\":10377:10391   */\n      iszero\n        /* \"#utility.yul\":10370:10392   */\n      iszero\n        /* \"#utility.yul\":10362:10368   */\n      dup3\n        /* \"#utility.yul\":10358:10393   */\n      mul\n        /* \"#utility.yul\":10353:10356   */\n      dup7\n        /* \"#utility.yul\":10349:10394   */\n      add\n        /* \"#utility.yul\":10342:10394   */\n      swap4\n      pop\n        /* \"#utility.yul\":10238:10404   */\n      jump(tag_203)\n        /* \"#utility.yul\":10413:10757   */\n    tag_205:\n        /* \"#utility.yul\":10480:10521   */\n      tag_206\n        /* \"#utility.yul\":10515:10520   */\n      dup6\n        /* \"#utility.yul\":10480:10521   */\n      tag_86\n      jump\t// in\n    tag_206:\n        /* \"#utility.yul\":10543:10544   */\n      0x00\n        /* \"#utility.yul\":10557:10711   */\n    tag_207:\n        /* \"#utility.yul\":10571:10577   */\n      dup4\n        /* \"#utility.yul\":10568:10569   */\n      dup2\n        /* \"#utility.yul\":10565:10578   */\n      lt\n        /* \"#utility.yul\":10557:10711   */\n      iszero\n      tag_209\n      jumpi\n        /* \"#utility.yul\":10645:10652   */\n      dup2\n        /* \"#utility.yul\":10639:10653   */\n      sload\n        /* \"#utility.yul\":10635:10636   */\n      dup2\n        /* \"#utility.yul\":10630:10633   */\n      dup10\n        /* \"#utility.yul\":10626:10637   */\n      add\n        /* \"#utility.yul\":10619:10654   */\n      mstore\n        /* \"#utility.yul\":10695:10696   */\n      0x01\n        /* \"#utility.yul\":10686:10693   */\n      dup3\n        /* \"#utility.yul\":10682:10697   */\n      add\n        /* \"#utility.yul\":10671:10697   */\n      swap2\n      pop\n        /* \"#utility.yul\":10593:10597   */\n      0x20\n        /* \"#utility.yul\":10590:10591   */\n      dup2\n        /* \"#utility.yul\":10586:10598   */\n      add\n        /* \"#utility.yul\":10581:10598   */\n      swap1\n      pop\n        /* \"#utility.yul\":10557:10711   */\n      jump(tag_207)\n    tag_209:\n        /* \"#utility.yul\":10740:10746   */\n      dup4\n        /* \"#utility.yul\":10735:10738   */\n      dup9\n        /* \"#utility.yul\":10731:10747   */\n      add\n        /* \"#utility.yul\":10724:10747   */\n      swap6\n      pop\n        /* \"#utility.yul\":10420:10757   */\n      pop\n      pop\n        /* \"#utility.yul\":10205:10757   */\n    tag_203:\n      pop\n        /* \"#utility.yul\":9994:10763   */\n      pop\n      pop\n        /* \"#utility.yul\":9885:10763   */\n      swap3\n      swap2\n      pop\n      pop\n      jump\t// out\n        /* \"#utility.yul\":10769:11042   */\n    tag_44:\n        /* \"#utility.yul\":10900:10903   */\n      0x00\n        /* \"#utility.yul\":10922:11016   */\n      tag_211\n        /* \"#utility.yul\":11012:11015   */\n      dup3\n        /* \"#utility.yul\":11003:11009   */\n      dup5\n        /* \"#utility.yul\":10922:11016   */\n      tag_87\n      jump\t// in\n    tag_211:\n        /* \"#utility.yul\":10915:11016   */\n      swap2\n      pop\n        /* \"#utility.yul\":11033:11036   */\n      dup2\n        /* \"#utility.yul\":11026:11036   */\n      swap1\n      pop\n        /* \"#utility.yul\":10769:11042   */\n      swap3\n      swap2\n      pop\n      pop\n      jump\t// out\n\n    auxdata: 0xa2646970667358221220f6040cb871f145d3ac9e48af05c58e6e547cd74d80b4f2f6657bc09f2b485d8264736f6c634300081e0033\n}\n",
				"bytecode": {
					"linkReferences": {},
					"object": "608060405234801561000f575f5ffd5b5061001e61003160201b60201c565b5f908161002b91906102ab565b5061037a565b60606040518060400160405280600b81526020017f48656c6c6f20776f726c64000000000000000000000000000000000000000000815250905090565b5f81519050919050565b7f4e487b71000000000000000000000000000000000000000000000000000000005f52604160045260245ffd5b7f4e487b71000000000000000000000000000000000000000000000000000000005f52602260045260245ffd5b5f60028204905060018216806100e957607f821691505b6020821081036100fc576100fb6100a5565b5b50919050565b5f819050815f5260205f209050919050565b5f6020601f8301049050919050565b5f82821b905092915050565b5f6008830261015e7fffffffffffffffffffffffffffffffffffffffffffffffffffffffffffffffff82610123565b6101688683610123565b95508019841693508086168417925050509392505050565b5f819050919050565b5f819050919050565b5f6101ac6101a76101a284610180565b610189565b610180565b9050919050565b5f819050919050565b6101c583610192565b6101d96101d1826101b3565b84845461012f565b825550505050565b5f5f905090565b6101f06101e1565b6101fb8184846101bc565b505050565b5b8181101561021e576102135f826101e8565b600181019050610201565b5050565b601f8211156102635761023481610102565b61023d84610114565b8101602085101561024c578190505b61026061025885610114565b830182610200565b50505b505050565b5f82821c905092915050565b5f6102835f1984600802610268565b1980831691505092915050565b5f61029b8383610274565b9150826002028217905092915050565b6102b48261006e565b67ffffffffffffffff8111156102cd576102cc610078565b5b6102d782546100d2565b6102e2828285610222565b5f60209050601f831160018114610313575f8415610301578287015190505b61030b8582610290565b865550610372565b601f19841661032186610102565b5f5b8281101561034857848901518255600182019150602085019450602081019050610323565b868310156103655784890151610361601f891682610274565b8355505b6001600288020188555050505b505050505050565b61081f806103875f395ff3fe608060405234801561000f575f5ffd5b506004361061004a575f3560e01c80632f2f48591461004e5780632fda332e1461006c5780635d3a1f9d1461008a5780638f1f9d90146100a6575b5f5ffd5b6100566100c4565b604051610063919061028b565b60405180910390f35b610074610153565b60405161008191906102c5565b60405180910390f35b6100a4600480360381019061009f919061041b565b610179565b005b6100ae61018b565b6040516100bb91906102c5565b60405180910390f35b60605f80546100d29061048f565b80601f01602080910402602001604051908101604052809291908181526020018280546100fe9061048f565b80156101495780601f1061012057610100808354040283529160200191610149565b820191905f5260205f20905b81548152906001019060200180831161012c57829003601f168201915b5050505050905090565b5f61015c61019a565b15610169575f9050610176565b6101716101c6565b600190505b90565b805f90816101879190610668565b5050565b5f61019461019a565b15905090565b5f6101a36101de565b805190602001205f6040516101b891906107d3565b604051809103902014905090565b6101ce6101de565b5f90816101db9190610668565b50565b60606040518060400160405280600b81526020017f48656c6c6f20776f726c64000000000000000000000000000000000000000000815250905090565b5f81519050919050565b5f82825260208201905092915050565b8281835e5f83830152505050565b5f601f19601f8301169050919050565b5f61025d8261021b565b6102678185610225565b9350610277818560208601610235565b61028081610243565b840191505092915050565b5f6020820190508181035f8301526102a38184610253565b905092915050565b5f8115159050919050565b6102bf816102ab565b82525050565b5f6020820190506102d85f8301846102b6565b92915050565b5f604051905090565b5f5ffd5b5f5ffd5b5f5ffd5b5f5ffd5b7f4e487b71000000000000000000000000000000000000000000000000000000005f52604160045260245ffd5b61032d82610243565b810181811067ffffffffffffffff8211171561034c5761034b6102f7565b5b80604052505050565b5f61035e6102de565b905061036a8282610324565b919050565b5f67ffffffffffffffff821115610389576103886102f7565b5b61039282610243565b9050602081019050919050565b828183375f83830152505050565b5f6103bf6103ba8461036f565b610355565b9050828152602081018484840111156103db576103da6102f3565b5b6103e684828561039f565b509392505050565b5f82601f830112610402576104016102ef565b5b81356104128482602086016103ad565b91505092915050565b5f602082840312156104305761042f6102e7565b5b5f82013567ffffffffffffffff81111561044d5761044c6102eb565b5b610459848285016103ee565b91505092915050565b7f4e487b71000000000000000000000000000000000000000000000000000000005f52602260045260245ffd5b5f60028204905060018216806104a657607f821691505b6020821081036104b9576104b8610462565b5b50919050565b5f819050815f5260205f209050919050565b5f6020601f8301049050919050565b5f82821b905092915050565b5f6008830261051b7fffffffffffffffffffffffffffffffffffffffffffffffffffffffffffffffff826104e0565b61052586836104e0565b95508019841693508086168417925050509392505050565b5f819050919050565b5f819050919050565b5f61056961056461055f8461053d565b610546565b61053d565b9050919050565b5f819050919050565b6105828361054f565b61059661058e82610570565b8484546104ec565b825550505050565b5f5f905090565b6105ad61059e565b6105b8818484610579565b505050565b5b818110156105db576105d05f826105a5565b6001810190506105be565b5050565b601f821115610620576105f1816104bf565b6105fa846104d1565b81016020851015610609578190505b61061d610615856104d1565b8301826105bd565b50505b505050565b5f82821c905092915050565b5f6106405f1984600802610625565b1980831691505092915050565b5f6106588383610631565b9150826002028217905092915050565b6106718261021b565b67ffffffffffffffff81111561068a576106896102f7565b5b610694825461048f565b61069f8282856105df565b5f60209050601f8311600181146106d0575f84156106be578287015190505b6106c8858261064d565b86555061072f565b601f1984166106de866104bf565b5f5b82811015610705578489015182556001820191506020850194506020810190506106e0565b86831015610722578489015161071e601f891682610631565b8355505b6001600288020188555050505b505050505050565b5f81905092915050565b5f819050815f5260205f209050919050565b5f815461075f8161048f565b6107698186610737565b9450600182165f81146107835760018114610798576107ca565b60ff19831686528115158202860193506107ca565b6107a185610741565b5f5b838110156107c2578154818901526001820191506020810190506107a3565b838801955050505b50505092915050565b5f6107de8284610753565b91508190509291505056fea2646970667358221220f6040cb871f145d3ac9e48af05c58e6e547cd74d80b4f2f6657bc09f2b485d8264736f6c634300081e0033",
					"opcodes": "PUSH1 0x80 PUSH1 0x40 MSTORE CALLVALUE DUP1 ISZERO PUSH2 0xF JUMPI PUSH0 PUSH0 REVERT JUMPDEST POP PUSH2 0x1E PUSH2 0x31 PUSH1 0x20 SHL PUSH1 0x20 SHR JUMP JUMPDEST PUSH0 SWAP1 DUP2 PUSH2 0x2B SWAP2 SWAP1 PUSH2 0x2AB JUMP JUMPDEST POP PUSH2 0x37A JUMP JUMPDEST PUSH1 0x60 PUSH1 0x40 MLOAD DUP1 PUSH1 0x40 ADD PUSH1 0x40 MSTORE DUP1 PUSH1 0xB DUP2 MSTORE PUSH1 0x20 ADD PUSH32 0x48656C6C6F20776F726C64000000000000000000000000000000000000000000 DUP2 MSTORE POP SWAP1 POP SWAP1 JUMP JUMPDEST PUSH0 DUP2 MLOAD SWAP1 POP SWAP2 SWAP1 POP JUMP JUMPDEST PUSH32 0x4E487B7100000000000000000000000000000000000000000000000000000000 PUSH0 MSTORE PUSH1 0x41 PUSH1 0x4 MSTORE PUSH1 0x24 PUSH0 REVERT JUMPDEST PUSH32 0x4E487B7100000000000000000000000000000000000000000000000000000000 PUSH0 MSTORE PUSH1 0x22 PUSH1 0x4 MSTORE PUSH1 0x24 PUSH0 REVERT JUMPDEST PUSH0 PUSH1 0x2 DUP3 DIV SWAP1 POP PUSH1 0x1 DUP3 AND DUP1 PUSH2 0xE9 JUMPI PUSH1 0x7F DUP3 AND SWAP2 POP JUMPDEST PUSH1 0x20 DUP3 LT DUP2 SUB PUSH2 0xFC JUMPI PUSH2 0xFB PUSH2 0xA5 JUMP JUMPDEST JUMPDEST POP SWAP2 SWAP1 POP JUMP JUMPDEST PUSH0 DUP2 SWAP1 POP DUP2 PUSH0 MSTORE PUSH1 0x20 PUSH0 KECCAK256 SWAP1 POP SWAP2 SWAP1 POP JUMP JUMPDEST PUSH0 PUSH1 0x20 PUSH1 0x1F DUP4 ADD DIV SWAP1 POP SWAP2 SWAP1 POP JUMP JUMPDEST PUSH0 DUP3 DUP3 SHL SWAP1 POP SWAP3 SWAP2 POP POP JUMP JUMPDEST PUSH0 PUSH1 0x8 DUP4 MUL PUSH2 0x15E PUSH32 0xFFFFFFFFFFFFFFFFFFFFFFFFFFFFFFFFFFFFFFFFFFFFFFFFFFFFFFFFFFFFFFFF DUP3 PUSH2 0x123 JUMP JUMPDEST PUSH2 0x168 DUP7 DUP4 PUSH2 0x123 JUMP JUMPDEST SWAP6 POP DUP1 NOT DUP5 AND SWAP4 POP DUP1 DUP7 AND DUP5 OR SWAP3 POP POP POP SWAP4 SWAP3 POP POP POP JUMP JUMPDEST PUSH0 DUP2 SWAP1 POP SWAP2 SWAP1 POP JUMP JUMPDEST PUSH0 DUP2 SWAP1 POP SWAP2 SWAP1 POP JUMP JUMPDEST PUSH0 PUSH2 0x1AC PUSH2 0x1A7 PUSH2 0x1A2 DUP5 PUSH2 0x180 JUMP JUMPDEST PUSH2 0x189 JUMP JUMPDEST PUSH2 0x180 JUMP JUMPDEST SWAP1 POP SWAP2 SWAP1 POP JUMP JUMPDEST PUSH0 DUP2 SWAP1 POP SWAP2 SWAP1 POP JUMP JUMPDEST PUSH2 0x1C5 DUP4 PUSH2 0x192 JUMP JUMPDEST PUSH2 0x1D9 PUSH2 0x1D1 DUP3 PUSH2 0x1B3 JUMP JUMPDEST DUP5 DUP5 SLOAD PUSH2 0x12F JUMP JUMPDEST DUP3 SSTORE POP POP POP POP JUMP JUMPDEST PUSH0 PUSH0 SWAP1 POP SWAP1 JUMP JUMPDEST PUSH2 0x1F0 PUSH2 0x1E1 JUMP JUMPDEST PUSH2 0x1FB DUP2 DUP5 DUP5 PUSH2 0x1BC JUMP JUMPDEST POP POP POP JUMP JUMPDEST JUMPDEST DUP2 DUP2 LT ISZERO PUSH2 0x21E JUMPI PUSH2 0x213 PUSH0 DUP3 PUSH2 0x1E8 JUMP JUMPDEST PUSH1 0x1 DUP2 ADD SWAP1 POP PUSH2 0x201 JUMP JUMPDEST POP POP JUMP JUMPDEST PUSH1 0x1F DUP3 GT ISZERO PUSH2 0x263 JUMPI PUSH2 0x234 DUP2 PUSH2 0x102 JUMP JUMPDEST PUSH2 0x23D DUP5 PUSH2 0x114 JUMP JUMPDEST DUP2 ADD PUSH1 0x20 DUP6 LT ISZERO PUSH2 0x24C JUMPI DUP2 SWAP1 POP JUMPDEST PUSH2 0x260 PUSH2 0x258 DUP6 PUSH2 0x114 JUMP JUMPDEST DUP4 ADD DUP3 PUSH2 0x200 JUMP JUMPDEST POP POP JUMPDEST POP POP POP JUMP JUMPDEST PUSH0 DUP3 DUP3 SHR SWAP1 POP SWAP3 SWAP2 POP POP JUMP JUMPDEST PUSH0 PUSH2 0x283 PUSH0 NOT DUP5 PUSH1 0x8 MUL PUSH2 0x268 JUMP JUMPDEST NOT DUP1 DUP4 AND SWAP2 POP POP SWAP3 SWAP2 POP POP JUMP JUMPDEST PUSH0 PUSH2 0x29B DUP4 DUP4 PUSH2 0x274 JUMP JUMPDEST SWAP2 POP DUP3 PUSH1 0x2 MUL DUP3 OR SWAP1 POP SWAP3 SWAP2 POP POP JUMP JUMPDEST PUSH2 0x2B4 DUP3 PUSH2 0x6E JUMP JUMPDEST PUSH8 0xFFFFFFFFFFFFFFFF DUP2 GT ISZERO PUSH2 0x2CD JUMPI PUSH2 0x2CC PUSH2 0x78 JUMP JUMPDEST JUMPDEST PUSH2 0x2D7 DUP3 SLOAD PUSH2 0xD2 JUMP JUMPDEST PUSH2 0x2E2 DUP3 DUP3 DUP6 PUSH2 0x222 JUMP JUMPDEST PUSH0 PUSH1 0x20 SWAP1 POP PUSH1 0x1F DUP4 GT PUSH1 0x1 DUP2 EQ PUSH2 0x313 JUMPI PUSH0 DUP5 ISZERO PUSH2 0x301 JUMPI DUP3 DUP8 ADD MLOAD SWAP1 POP JUMPDEST PUSH2 0x30B DUP6 DUP3 PUSH2 0x290 JUMP JUMPDEST DUP7 SSTORE POP PUSH2 0x372 JUMP JUMPDEST PUSH1 0x1F NOT DUP5 AND PUSH2 0x321 DUP7 PUSH2 0x102 JUMP JUMPDEST PUSH0 JUMPDEST DUP3 DUP2 LT ISZERO PUSH2 0x348 JUMPI DUP5 DUP10 ADD MLOAD DUP3 SSTORE PUSH1 0x1 DUP3 ADD SWAP2 POP PUSH1 0x20 DUP6 ADD SWAP5 POP PUSH1 0x20 DUP2 ADD SWAP1 POP PUSH2 0x323 JUMP JUMPDEST DUP7 DUP4 LT ISZERO PUSH2 0x365 JUMPI DUP5 DUP10 ADD MLOAD PUSH2 0x361 PUSH1 0x1F DUP10 AND DUP3 PUSH2 0x274 JUMP JUMPDEST DUP4 SSTORE POP JUMPDEST PUSH1 0x1 PUSH1 0x2 DUP9 MUL ADD DUP9 SSTORE POP POP POP JUMPDEST POP POP POP POP POP POP JUMP JUMPDEST PUSH2 0x81F DUP1 PUSH2 0x387 PUSH0 CODECOPY PUSH0 RETURN INVALID PUSH1 0x80 PUSH1 0x40 MSTORE CALLVALUE DUP1 ISZERO PUSH2 0xF JUMPI PUSH0 PUSH0 REVERT JUMPDEST POP PUSH1 0x4 CALLDATASIZE LT PUSH2 0x4A JUMPI PUSH0 CALLDATALOAD PUSH1 0xE0 SHR DUP1 PUSH4 0x2F2F4859 EQ PUSH2 0x4E JUMPI DUP1 PUSH4 0x2FDA332E EQ PUSH2 0x6C JUMPI DUP1 PUSH4 0x5D3A1F9D EQ PUSH2 0x8A JUMPI DUP1 PUSH4 0x8F1F9D90 EQ PUSH2 0xA6 JUMPI JUMPDEST PUSH0 PUSH0 REVERT JUMPDEST PUSH2 0x56 PUSH2 0xC4 JUMP JUMPDEST PUSH1 0x40 MLOAD PUSH2 0x63 SWAP2 SWAP1 PUSH2 0x28B JUMP JUMPDEST PUSH1 0x40 MLOAD DUP1 SWAP2 SUB SWAP1 RETURN JUMPDEST PUSH2 0x74 PUSH2 0x153 JUMP JUMPDEST PUSH1 0x40 MLOAD PUSH2 0x81 SWAP2 SWAP1 PUSH2 0x2C5 JUMP JUMPDEST PUSH1 0x40 MLOAD DUP1 SWAP2 SUB SWAP1 RETURN JUMPDEST PUSH2 0xA4 PUSH1 0x4 DUP1 CALLDATASIZE SUB DUP2 ADD SWAP1 PUSH2 0x9F SWAP2 SWAP1 PUSH2 0x41B JUMP JUMPDEST PUSH2 0x179 JUMP JUMPDEST STOP JUMPDEST PUSH2 0xAE PUSH2 0x18B JUMP JUMPDEST PUSH1 0x40 MLOAD PUSH2 0xBB SWAP2 SWAP1 PUSH2 0x2C5 JUMP JUMPDEST PUSH1 0x40 MLOAD DUP1 SWAP2 SUB SWAP1 RETURN JUMPDEST PUSH1 0x60 PUSH0 DUP1 SLOAD PUSH2 0xD2 SWAP1 PUSH2 0x48F JUMP JUMPDEST DUP1 PUSH1 0x1F ADD PUSH1 0x20 DUP1 SWAP2 DIV MUL PUSH1 0x20 ADD PUSH1 0x40 MLOAD SWAP1 DUP2 ADD PUSH1 0x40 MSTORE DUP1 SWAP3 SWAP2 SWAP1 DUP2 DUP2 MSTORE PUSH1 0x20 ADD DUP3 DUP1 SLOAD PUSH2 0xFE SWAP1 PUSH2 0x48F JUMP JUMPDEST DUP1 ISZERO PUSH2 0x149 JUMPI DUP1 PUSH1 0x1F LT PUSH2 0x120 JUMPI PUSH2 0x100 DUP1 DUP4 SLOAD DIV MUL DUP4 MSTORE SWAP2 PUSH1 0x20 ADD SWAP2 PUSH2 0x149 JUMP JUMPDEST DUP3 ADD SWAP2 SWAP1 PUSH0 MSTORE PUSH1 0x20 PUSH0 KECCAK256 SWAP1 JUMPDEST DUP2 SLOAD DUP2 MSTORE SWAP1 PUSH1 0x1 ADD SWAP1 PUSH1 0x20 ADD DUP1 DUP4 GT PUSH2 0x12C JUMPI DUP3 SWAP1 SUB PUSH1 0x1F AND DUP3 ADD SWAP2 JUMPDEST POP POP POP POP POP SWAP1 POP SWAP1 JUMP JUMPDEST PUSH0 PUSH2 0x15C PUSH2 0x19A JUMP JUMPDEST ISZERO PUSH2 0x169 JUMPI PUSH0 SWAP1 POP PUSH2 0x176 JUMP JUMPDEST PUSH2 0x171 PUSH2 0x1C6 JUMP JUMPDEST PUSH1 0x1 SWAP1 POP JUMPDEST SWAP1 JUMP JUMPDEST DUP1 PUSH0 SWAP1 DUP2 PUSH2 0x187 SWAP2 SWAP1 PUSH2 0x668 JUMP JUMPDEST POP POP JUMP JUMPDEST PUSH0 PUSH2 0x194 PUSH2 0x19A JUMP JUMPDEST ISZERO SWAP1 POP SWAP1 JUMP JUMPDEST PUSH0 PUSH2 0x1A3 PUSH2 0x1DE JUMP JUMPDEST DUP1 MLOAD SWAP1 PUSH1 0x20 ADD KECCAK256 PUSH0 PUSH1 0x40 MLOAD PUSH2 0x1B8 SWAP2 SWAP1 PUSH2 0x7D3 JUMP JUMPDEST PUSH1 0x40 MLOAD DUP1 SWAP2 SUB SWAP1 KECCAK256 EQ SWAP1 POP SWAP1 JUMP JUMPDEST PUSH2 0x1CE PUSH2 0x1DE JUMP JUMPDEST PUSH0 SWAP1 DUP2 PUSH2 0x1DB SWAP2 SWAP1 PUSH2 0x668 JUMP JUMPDEST POP JUMP JUMPDEST PUSH1 0x60 PUSH1 0x40 MLOAD DUP1 PUSH1 0x40 ADD PUSH1 0x40 MSTORE DUP1 PUSH1 0xB DUP2 MSTORE PUSH1 0x20 ADD PUSH32 0x48656C6C6F20776F726C64000000000000000000000000000000000000000000 DUP2 MSTORE POP SWAP1 POP SWAP1 JUMP JUMPDEST PUSH0 DUP2 MLOAD SWAP1 POP SWAP2 SWAP1 POP JUMP JUMPDEST PUSH0 DUP3 DUP3 MSTORE PUSH1 0x20 DUP3 ADD SWAP1 POP SWAP3 SWAP2 POP POP JUMP JUMPDEST DUP3 DUP2 DUP4 MCOPY PUSH0 DUP4 DUP4 ADD MSTORE POP POP POP JUMP JUMPDEST PUSH0 PUSH1 0x1F NOT PUSH1 0x1F DUP4 ADD AND SWAP1 POP SWAP2 SWAP1 POP JUMP JUMPDEST PUSH0 PUSH2 0x25D DUP3 PUSH2 0x21B JUMP JUMPDEST PUSH2 0x267 DUP2 DUP6 PUSH2 0x225 JUMP JUMPDEST SWAP4 POP PUSH2 0x277 DUP2 DUP6 PUSH1 0x20 DUP7 ADD PUSH2 0x235 JUMP JUMPDEST PUSH2 0x280 DUP2 PUSH2 0x243 JUMP JUMPDEST DUP5 ADD SWAP2 POP POP SWAP3 SWAP2 POP POP JUMP JUMPDEST PUSH0 PUSH1 0x20 DUP3 ADD SWAP1 POP DUP2 DUP2 SUB PUSH0 DUP4 ADD MSTORE PUSH2 0x2A3 DUP2 DUP5 PUSH2 0x253 JUMP JUMPDEST SWAP1 POP SWAP3 SWAP2 POP POP JUMP JUMPDEST PUSH0 DUP2 ISZERO ISZERO SWAP1 POP SWAP2 SWAP1 POP JUMP JUMPDEST PUSH2 0x2BF DUP2 PUSH2 0x2AB JUMP JUMPDEST DUP3 MSTORE POP POP JUMP JUMPDEST PUSH0 PUSH1 0x20 DUP3 ADD SWAP1 POP PUSH2 0x2D8 PUSH0 DUP4 ADD DUP5 PUSH2 0x2B6 JUMP JUMPDEST SWAP3 SWAP2 POP POP JUMP JUMPDEST PUSH0 PUSH1 0x40 MLOAD SWAP1 POP SWAP1 JUMP JUMPDEST PUSH0 PUSH0 REVERT JUMPDEST PUSH0 PUSH0 REVERT JUMPDEST PUSH0 PUSH0 REVERT JUMPDEST PUSH0 PUSH0 REVERT JUMPDEST PUSH32 0x4E487B7100000000000000000000000000000000000000000000000000000000 PUSH0 MSTORE PUSH1 0x41 PUSH1 0x4 MSTORE PUSH1 0x24 PUSH0 REVERT JUMPDEST PUSH2 0x32D DUP3 PUSH2 0x243 JUMP JUMPDEST DUP2 ADD DUP2 DUP2 LT PUSH8 0xFFFFFFFFFFFFFFFF DUP3 GT OR ISZERO PUSH2 0x34C JUMPI PUSH2 0x34B PUSH2 0x2F7 JUMP JUMPDEST JUMPDEST DUP1 PUSH1 0x40 MSTORE POP POP POP JUMP JUMPDEST PUSH0 PUSH2 0x35E PUSH2 0x2DE JUMP JUMPDEST SWAP1 POP PUSH2 0x36A DUP3 DUP3 PUSH2 0x324 JUMP JUMPDEST SWAP2 SWAP1 POP JUMP JUMPDEST PUSH0 PUSH8 0xFFFFFFFFFFFFFFFF DUP3 GT ISZERO PUSH2 0x389 JUMPI PUSH2 0x388 PUSH2 0x2F7 JUMP JUMPDEST JUMPDEST PUSH2 0x392 DUP3 PUSH2 0x243 JUMP JUMPDEST SWAP1 POP PUSH1 0x20 DUP2 ADD SWAP1 POP SWAP2 SWAP1 POP JUMP JUMPDEST DUP3 DUP2 DUP4 CALLDATACOPY PUSH0 DUP4 DUP4 ADD MSTORE POP POP POP JUMP JUMPDEST PUSH0 PUSH2 0x3BF PUSH2 0x3BA DUP5 PUSH2 0x36F JUMP JUMPDEST PUSH2 0x355 JUMP JUMPDEST SWAP1 POP DUP3 DUP2 MSTORE PUSH1 0x20 DUP2 ADD DUP5 DUP5 DUP5 ADD GT ISZERO PUSH2 0x3DB JUMPI PUSH2 0x3DA PUSH2 0x2F3 JUMP JUMPDEST JUMPDEST PUSH2 0x3E6 DUP5 DUP3 DUP6 PUSH2 0x39F JUMP JUMPDEST POP SWAP4 SWAP3 POP POP POP JUMP JUMPDEST PUSH0 DUP3 PUSH1 0x1F DUP4 ADD SLT PUSH2 0x402 JUMPI PUSH2 0x401 PUSH2 0x2EF JUMP JUMPDEST JUMPDEST DUP2 CALLDATALOAD PUSH2 0x412 DUP5 DUP3 PUSH1 0x20 DUP7 ADD PUSH2 0x3AD JUMP JUMPDEST SWAP2 POP POP SWAP3 SWAP2 POP POP JUMP JUMPDEST PUSH0 PUSH1 0x20 DUP3 DUP5 SUB SLT ISZERO PUSH2 0x430 JUMPI PUSH2 0x42F PUSH2 0x2E7 JUMP JUMPDEST JUMPDEST PUSH0 DUP3 ADD CALLDATALOAD PUSH8 0xFFFFFFFFFFFFFFFF DUP2 GT ISZERO PUSH2 0x44D JUMPI PUSH2 0x44C PUSH2 0x2EB JUMP JUMPDEST JUMPDEST PUSH2 0x459 DUP5 DUP3 DUP6 ADD PUSH2 0x3EE JUMP JUMPDEST SWAP2 POP POP SWAP3 SWAP2 POP POP JUMP JUMPDEST PUSH32 0x4E487B7100000000000000000000000000000000000000000000000000000000 PUSH0 MSTORE PUSH1 0x22 PUSH1 0x4 MSTORE PUSH1 0x24 PUSH0 REVERT JUMPDEST PUSH0 PUSH1 0x2 DUP3 DIV SWAP1 POP PUSH1 0x1 DUP3 AND DUP1 PUSH2 0x4A6 JUMPI PUSH1 0x7F DUP3 AND SWAP2 POP JUMPDEST PUSH1 0x20 DUP3 LT DUP2 SUB PUSH2 0x4B9 JUMPI PUSH2 0x4B8 PUSH2 0x462 JUMP JUMPDEST JUMPDEST POP SWAP2 SWAP1 POP JUMP JUMPDEST PUSH0 DUP2 SWAP1 POP DUP2 PUSH0 MSTORE PUSH1 0x20 PUSH0 KECCAK256 SWAP1 POP SWAP2 SWAP1 POP JUMP JUMPDEST PUSH0 PUSH1 0x20 PUSH1 0x1F DUP4 ADD DIV SWAP1 POP SWAP2 SWAP1 POP JUMP JUMPDEST PUSH0 DUP3 DUP3 SHL SWAP1 POP SWAP3 SWAP2 POP POP JUMP JUMPDEST PUSH0 PUSH1 0x8 DUP4 MUL PUSH2 0x51B PUSH32 0xFFFFFFFFFFFFFFFFFFFFFFFFFFFFFFFFFFFFFFFFFFFFFFFFFFFFFFFFFFFFFFFF DUP3 PUSH2 0x4E0 JUMP JUMPDEST PUSH2 0x525 DUP7 DUP4 PUSH2 0x4E0 JUMP JUMPDEST SWAP6 POP DUP1 NOT DUP5 AND SWAP4 POP DUP1 DUP7 AND DUP5 OR SWAP3 POP POP POP SWAP4 SWAP3 POP POP POP JUMP JUMPDEST PUSH0 DUP2 SWAP1 POP SWAP2 SWAP1 POP JUMP JUMPDEST PUSH0 DUP2 SWAP1 POP SWAP2 SWAP1 POP JUMP JUMPDEST PUSH0 PUSH2 0x569 PUSH2 0x564 PUSH2 0x55F DUP5 PUSH2 0x53D JUMP JUMPDEST PUSH2 0x546 JUMP JUMPDEST PUSH2 0x53D JUMP JUMPDEST SWAP1 POP SWAP2 SWAP1 POP JUMP JUMPDEST PUSH0 DUP2 SWAP1 POP SWAP2 SWAP1 POP JUMP JUMPDEST PUSH2 0x582 DUP4 PUSH2 0x54F JUMP JUMPDEST PUSH2 0x596 PUSH2 0x58E DUP3 PUSH2 0x570 JUMP JUMPDEST DUP5 DUP5 SLOAD PUSH2 0x4EC JUMP JUMPDEST DUP3 SSTORE POP POP POP POP JUMP JUMPDEST PUSH0 PUSH0 SWAP1 POP SWAP1 JUMP JUMPDEST PUSH2 0x5AD PUSH2 0x59E JUMP JUMPDEST PUSH2 0x5B8 DUP2 DUP5 DUP5 PUSH2 0x579 JUMP JUMPDEST POP POP POP JUMP JUMPDEST JUMPDEST DUP2 DUP2 LT ISZERO PUSH2 0x5DB JUMPI PUSH2 0x5D0 PUSH0 DUP3 PUSH2 0x5A5 JUMP JUMPDEST PUSH1 0x1 DUP2 ADD SWAP1 POP PUSH2 0x5BE JUMP JUMPDEST POP POP JUMP JUMPDEST PUSH1 0x1F DUP3 GT ISZERO PUSH2 0x620 JUMPI PUSH2 0x5F1 DUP2 PUSH2 0x4BF JUMP JUMPDEST PUSH2 0x5FA DUP5 PUSH2 0x4D1 JUMP JUMPDEST DUP2 ADD PUSH1 0x20 DUP6 LT ISZERO PUSH2 0x609 JUMPI DUP2 SWAP1 POP JUMPDEST PUSH2 0x61D PUSH2 0x615 DUP6 PUSH2 0x4D1 JUMP JUMPDEST DUP4 ADD DUP3 PUSH2 0x5BD JUMP JUMPDEST POP POP JUMPDEST POP POP POP JUMP JUMPDEST PUSH0 DUP3 DUP3 SHR SWAP1 POP SWAP3 SWAP2 POP POP JUMP JUMPDEST PUSH0 PUSH2 0x640 PUSH0 NOT DUP5 PUSH1 0x8 MUL PUSH2 0x625 JUMP JUMPDEST NOT DUP1 DUP4 AND SWAP2 POP POP SWAP3 SWAP2 POP POP JUMP JUMPDEST PUSH0 PUSH2 0x658 DUP4 DUP4 PUSH2 0x631 JUMP JUMPDEST SWAP2 POP DUP3 PUSH1 0x2 MUL DUP3 OR SWAP1 POP SWAP3 SWAP2 POP POP JUMP JUMPDEST PUSH2 0x671 DUP3 PUSH2 0x21B JUMP JUMPDEST PUSH8 0xFFFFFFFFFFFFFFFF DUP2 GT ISZERO PUSH2 0x68A JUMPI PUSH2 0x689 PUSH2 0x2F7 JUMP JUMPDEST JUMPDEST PUSH2 0x694 DUP3 SLOAD PUSH2 0x48F JUMP JUMPDEST PUSH2 0x69F DUP3 DUP3 DUP6 PUSH2 0x5DF JUMP JUMPDEST PUSH0 PUSH1 0x20 SWAP1 POP PUSH1 0x1F DUP4 GT PUSH1 0x1 DUP2 EQ PUSH2 0x6D0 JUMPI PUSH0 DUP5 ISZERO PUSH2 0x6BE JUMPI DUP3 DUP8 ADD MLOAD SWAP1 POP JUMPDEST PUSH2 0x6C8 DUP6 DUP3 PUSH2 0x64D JUMP JUMPDEST DUP7 SSTORE POP PUSH2 0x72F JUMP JUMPDEST PUSH1 0x1F NOT DUP5 AND PUSH2 0x6DE DUP7 PUSH2 0x4BF JUMP JUMPDEST PUSH0 JUMPDEST DUP3 DUP2 LT ISZERO PUSH2 0x705 JUMPI DUP5 DUP10 ADD MLOAD DUP3 SSTORE PUSH1 0x1 DUP3 ADD SWAP2 POP PUSH1 0x20 DUP6 ADD SWAP5 POP PUSH1 0x20 DUP2 ADD SWAP1 POP PUSH2 0x6E0 JUMP JUMPDEST DUP7 DUP4 LT ISZERO PUSH2 0x722 JUMPI DUP5 DUP10 ADD MLOAD PUSH2 0x71E PUSH1 0x1F DUP10 AND DUP3 PUSH2 0x631 JUMP JUMPDEST DUP4 SSTORE POP JUMPDEST PUSH1 0x1 PUSH1 0x2 DUP9 MUL ADD DUP9 SSTORE POP POP POP JUMPDEST POP POP POP POP POP POP JUMP JUMPDEST PUSH0 DUP2 SWAP1 POP SWAP3 SWAP2 POP POP JUMP JUMPDEST PUSH0 DUP2 SWAP1 POP DUP2 PUSH0 MSTORE PUSH1 0x20 PUSH0 KECCAK256 SWAP1 POP SWAP2 SWAP1 POP JUMP JUMPDEST PUSH0 DUP2 SLOAD PUSH2 0x75F DUP2 PUSH2 0x48F JUMP JUMPDEST PUSH2 0x769 DUP2 DUP7 PUSH2 0x737 JUMP JUMPDEST SWAP5 POP PUSH1 0x1 DUP3 AND PUSH0 DUP2 EQ PUSH2 0x783 JUMPI PUSH1 0x1 DUP2 EQ PUSH2 0x798 JUMPI PUSH2 0x7CA JUMP JUMPDEST PUSH1 0xFF NOT DUP4 AND DUP7 MSTORE DUP2 ISZERO ISZERO DUP3 MUL DUP7 ADD SWAP4 POP PUSH2 0x7CA JUMP JUMPDEST PUSH2 0x7A1 DUP6 PUSH2 0x741 JUMP JUMPDEST PUSH0 JUMPDEST DUP4 DUP2 LT ISZERO PUSH2 0x7C2 JUMPI DUP2 SLOAD DUP2 DUP10 ADD MSTORE PUSH1 0x1 DUP3 ADD SWAP2 POP PUSH1 0x20 DUP2 ADD SWAP1 POP PUSH2 0x7A3 JUMP JUMPDEST DUP4 DUP9 ADD SWAP6 POP POP POP JUMPDEST POP POP POP SWAP3 SWAP2 POP POP JUMP JUMPDEST PUSH0 PUSH2 0x7DE DUP3 DUP5 PUSH2 0x753 JUMP JUMPDEST SWAP2 POP DUP2 SWAP1 POP SWAP3 SWAP2 POP POP JUMP INVALID LOG2 PUSH5 0x6970667358 0x22 SLT KECCAK256 0xF6 DIV 0xC 0xB8 PUSH18 0xF145D3AC9E48AF05C58E6E547CD74D80B4F2 0xF6 PUSH6 0x7BC09F2B485D DUP3 PUSH5 0x736F6C6343 STOP ADDMOD 0x1E STOP CALLER "
				},
				"gasEstimates": {
					"creation": {
						"codeDepositCost": "415800",
						"executionCost": "infinite",
						"totalCost": "infinite"
					},
					"external": {
						"helloworld()": "infinite",
						"restore()": "infinite",
						"setText(string)": "infinite",
						"textHasChanged()": "infinite"
					},
					"internal": {
						"_isUnchanged()": "infinite",
						"_restore()": "infinite",
						"initialText()": "infinite"
					}
				},
				"methodIdentifiers": {
					"helloworld()": "2f2f4859",
					"restore()": "2fda332e",
					"setText(string)": "5d3a1f9d",
					"textHasChanged()": "8f1f9d90"
				}
			},
			"storageLayout": {
				"storage": [
					{
						"astId": 3,
						"contract": "HelloWorld.sol:HelloWorld",
						"label": "text",
						"offset": 0,
						"slot": "0",
						"type": "t_string_storage"
					}
				],
				"types": {
					"t_string_storage": {
						"encoding": "bytes",
						"label": "string",
						"numberOfBytes": "32"
					}
				}
			},
			"userdoc": {
				"kind": "user",
				"methods": {},
				"version": 1
			}
		}
	}
}